{
  "contractName": "Helper",
  "abi": [
    {
      "constant": true,
      "inputs": [
        {
          "name": "",
          "type": "uint256"
        }
      ],
      "name": "ancestorToOwner",
      "outputs": [
        {
          "name": "",
          "type": "address"
        }
      ],
      "payable": false,
      "stateMutability": "view",
      "type": "function"
    },
    {
      "constant": false,
      "inputs": [],
      "name": "renounceOwnership",
      "outputs": [],
      "payable": false,
      "stateMutability": "nonpayable",
      "type": "function"
    },
    {
      "constant": true,
      "inputs": [],
      "name": "owner",
      "outputs": [
        {
          "name": "",
          "type": "address"
        }
      ],
      "payable": false,
      "stateMutability": "view",
      "type": "function"
    },
    {
      "constant": false,
      "inputs": [
        {
          "name": "_name",
          "type": "string"
        }
      ],
      "name": "_makeRandomAncestor",
      "outputs": [],
      "payable": false,
      "stateMutability": "nonpayable",
      "type": "function"
    },
    {
      "constant": true,
      "inputs": [],
      "name": "isOwner",
      "outputs": [
        {
          "name": "",
          "type": "bool"
        }
      ],
      "payable": false,
      "stateMutability": "view",
      "type": "function"
    },
    {
      "constant": true,
      "inputs": [
        {
          "name": "",
          "type": "uint256"
        }
      ],
      "name": "ancestors",
      "outputs": [
        {
          "name": "name",
          "type": "string"
        },
        {
          "name": "dna",
          "type": "uint256"
        },
        {
          "name": "scalps",
          "type": "uint16"
        },
        {
          "name": "readyTime",
          "type": "uint32"
        },
        {
          "name": "traumaCount",
          "type": "uint32"
        },
        {
          "name": "rejections",
          "type": "uint32"
        },
        {
          "name": "isTaken",
          "type": "bool"
        },
        {
          "name": "canCrawl",
          "type": "bool"
        }
      ],
      "payable": false,
      "stateMutability": "view",
      "type": "function"
    },
    {
      "constant": true,
      "inputs": [
        {
          "name": "",
          "type": "address"
        }
      ],
      "name": "ancestorCount",
      "outputs": [
        {
          "name": "",
          "type": "uint256"
        }
      ],
      "payable": false,
      "stateMutability": "view",
      "type": "function"
    },
    {
      "constant": false,
      "inputs": [
        {
          "name": "newOwner",
          "type": "address"
        }
      ],
      "name": "transferOwnership",
      "outputs": [],
      "payable": false,
      "stateMutability": "nonpayable",
      "type": "function"
    },
    {
      "anonymous": false,
      "inputs": [
        {
          "indexed": false,
          "name": "id",
          "type": "uint256"
        },
        {
          "indexed": false,
          "name": "name",
          "type": "string"
        },
        {
          "indexed": false,
          "name": "dna",
          "type": "uint256"
        }
      ],
      "name": "NewAncestor",
      "type": "event"
    },
    {
      "anonymous": false,
      "inputs": [
        {
          "indexed": true,
          "name": "previousOwner",
          "type": "address"
        },
        {
          "indexed": true,
          "name": "newOwner",
          "type": "address"
        }
      ],
      "name": "OwnershipTransferred",
      "type": "event"
    },
    {
      "constant": false,
      "inputs": [
        {
          "name": "_ancestorId",
          "type": "uint256"
        }
      ],
      "name": "withdraw",
      "outputs": [],
      "payable": false,
      "stateMutability": "nonpayable",
      "type": "function"
    },
    {
      "constant": false,
      "inputs": [
        {
          "name": "_fee",
          "type": "uint256"
        }
      ],
      "name": "setLevelUpFee",
      "outputs": [],
      "payable": false,
      "stateMutability": "nonpayable",
      "type": "function"
    },
    {
      "constant": false,
      "inputs": [
        {
          "name": "_ancestorId",
          "type": "uint256"
        }
      ],
      "name": "levelUp",
      "outputs": [],
      "payable": true,
      "stateMutability": "payable",
      "type": "function"
    },
    {
      "constant": true,
      "inputs": [
        {
          "name": "_owner",
          "type": "address"
        }
      ],
      "name": "getAncestorsByOwner",
      "outputs": [
        {
          "name": "",
          "type": "uint256[]"
        }
      ],
      "payable": false,
      "stateMutability": "view",
      "type": "function"
    },
    {
      "constant": false,
      "inputs": [
        {
          "name": "_ancestorId",
          "type": "uint256"
        }
      ],
      "name": "_date",
      "outputs": [],
      "payable": false,
      "stateMutability": "nonpayable",
      "type": "function"
    },
    {
      "constant": false,
      "inputs": [
        {
          "name": "_ancestorId",
          "type": "uint256"
        }
      ],
      "name": "_bringHome",
      "outputs": [],
      "payable": false,
      "stateMutability": "nonpayable",
      "type": "function"
    },
    {
      "constant": false,
      "inputs": [
        {
          "name": "_ancestorId",
          "type": "uint256"
        }
      ],
      "name": "donScalp",
      "outputs": [],
      "payable": false,
      "stateMutability": "nonpayable",
      "type": "function"
    },
    {
      "constant": false,
      "inputs": [
        {
          "name": "_ancestorId",
          "type": "uint256"
        }
      ],
      "name": "_traumatize",
      "outputs": [],
      "payable": false,
      "stateMutability": "nonpayable",
      "type": "function"
    }
  ],
  "bytecode": "0x60806040526010600155600154600a0a6002556201518060035566038d7ea4c68000600755603260085560286009556014600a556014600b556000600c55336000806101000a81548173ffffffffffffffffffffffffffffffffffffffff021916908373ffffffffffffffffffffffffffffffffffffffff1602179055506000809054906101000a900473ffffffffffffffffffffffffffffffffffffffff1673ffffffffffffffffffffffffffffffffffffffff16600073ffffffffffffffffffffffffffffffffffffffff167f8be0079c531659141344cd1fd0a4f28419497f9722a3daafe3b4186f6b6457e060405160405180910390a3611902806101086000396000f3fe6080604052600436106100f35760003560e01c80638daa76f71161008a578063ccf670f811610059578063ccf670f8146105b1578063d1a6497c146105ec578063f2fde38b14610651578063f3db17fb146106a2576100f3565b80638daa76f7146102fb5780638f32d59b146103c35780639b127d1a146103f2578063a0680aae14610498576100f3565b8063715018a6116100c6578063715018a6146102175780637ef9d5b01461022e578063801f9a18146102695780638da5cb5b146102a4576100f3565b80630ce90ec2146100f857806317354967146101265780632e1a7d4d146101a157806346582732146101dc575b600080fd5b6101246004803603602081101561010e57600080fd5b81019080803590602001909291905050506106dd565b005b34801561013257600080fd5b5061015f6004803603602081101561014957600080fd5b8101908080359060200190929190505050610772565b604051808273ffffffffffffffffffffffffffffffffffffffff1673ffffffffffffffffffffffffffffffffffffffff16815260200191505060405180910390f35b3480156101ad57600080fd5b506101da600480360360208110156101c457600080fd5b81019080803590602001909291905050506107a5565b005b3480156101e857600080fd5b50610215600480360360208110156101ff57600080fd5b8101908080359060200190929190505050610873565b005b34801561022357600080fd5b5061022c6109b1565b005b34801561023a57600080fd5b506102676004803603602081101561025157600080fd5b8101908080359060200190929190505050610a81565b005b34801561027557600080fd5b506102a26004803603602081101561028c57600080fd5b8101908080359060200190929190505050610c05565b005b3480156102b057600080fd5b506102b9610d7e565b604051808273ffffffffffffffffffffffffffffffffffffffff1673ffffffffffffffffffffffffffffffffffffffff16815260200191505060405180910390f35b34801561030757600080fd5b506103c16004803603602081101561031e57600080fd5b810190808035906020019064010000000081111561033b57600080fd5b82018360208201111561034d57600080fd5b8035906020019184600183028401116401000000008311171561036f57600080fd5b91908080601f016020809104026020016040519081016040528093929190818152602001838380828437600081840152601f19601f820116905080830192505050505050509192919290505050610da7565b005b3480156103cf57600080fd5b506103d8610e1d565b604051808215151515815260200191505060405180910390f35b3480156103fe57600080fd5b506104416004803603602081101561041557600080fd5b81019080803573ffffffffffffffffffffffffffffffffffffffff169060200190929190505050610e74565b6040518080602001828103825283818151815260200191508051906020019060200280838360005b83811015610484578082015181840152602081019050610469565b505050509050019250505060405180910390f35b3480156104a457600080fd5b506104d1600480360360208110156104bb57600080fd5b8101908080359060200190929190505050610fa1565b60405180806020018981526020018861ffff1661ffff1681526020018763ffffffff1663ffffffff1681526020018663ffffffff1663ffffffff1681526020018563ffffffff1663ffffffff168152602001841515151581526020018315151515815260200182810382528a818151815260200191508051906020019080838360005b8381101561056f578082015181840152602081019050610554565b50505050905090810190601f16801561059c5780820380516001836020036101000a031916815260200191505b50995050505050505050505060405180910390f35b3480156105bd57600080fd5b506105ea600480360360208110156105d457600080fd5b81019080803590602001909291905050506110e6565b005b3480156105f857600080fd5b5061063b6004803603602081101561060f57600080fd5b81019080803573ffffffffffffffffffffffffffffffffffffffff169060200190929190505050611101565b6040518082815260200191505060405180910390f35b34801561065d57600080fd5b506106a06004803603602081101561067457600080fd5b81019080803573ffffffffffffffffffffffffffffffffffffffff169060200190929190505050611119565b005b3480156106ae57600080fd5b506106db600480360360208110156106c557600080fd5b8101908080359060200190929190505050611136565b005b60075434146106eb57600080fd5b6107336001600483815481106106fd57fe5b906000526020600020906003020160020160069054906101000a900463ffffffff1663ffffffff1661125a90919063ffffffff16565b6004828154811061074057fe5b906000526020600020906003020160020160066101000a81548163ffffffff021916908363ffffffff16021790555050565b60056020528060005260406000206000915054906101000a900473ffffffffffffffffffffffffffffffffffffffff1681565b806005600082815260200190815260200160002060009054906101000a900473ffffffffffffffffffffffffffffffffffffffff1673ffffffffffffffffffffffffffffffffffffffff163373ffffffffffffffffffffffffffffffffffffffff161461081157600080fd5b3373ffffffffffffffffffffffffffffffffffffffff166108fc3073ffffffffffffffffffffffffffffffffffffffff16319081150290604051600060405180830381858888f1935050505015801561086e573d6000803e3d6000fd5b505050565b806005600082815260200190815260200160002060009054906101000a900473ffffffffffffffffffffffffffffffffffffffff1673ffffffffffffffffffffffffffffffffffffffff163373ffffffffffffffffffffffffffffffffffffffff16146108df57600080fd5b6000600483815481106108ee57fe5b906000526020600020906003020190506001151581600201600e9054906101000a900460ff1615151461092057600080fd5b600061092c6064611282565b90506009548111610951576001151582600201600f9054906101000a905050506109ab565b61097f600183600201600a9054906101000a900463ffffffff1663ffffffff1661125a90919063ffffffff16565b82600201600a6101000a81548163ffffffff021916908363ffffffff1602179055506109aa82611316565b5b50505050565b6109b9610e1d565b6109c257600080fd5b600073ffffffffffffffffffffffffffffffffffffffff166000809054906101000a900473ffffffffffffffffffffffffffffffffffffffff1673ffffffffffffffffffffffffffffffffffffffff167f8be0079c531659141344cd1fd0a4f28419497f9722a3daafe3b4186f6b6457e060405160405180910390a360008060006101000a81548173ffffffffffffffffffffffffffffffffffffffff021916908373ffffffffffffffffffffffffffffffffffffffff160217905550565b806005600082815260200190815260200160002060009054906101000a900473ffffffffffffffffffffffffffffffffffffffff1673ffffffffffffffffffffffffffffffffffffffff163373ffffffffffffffffffffffffffffffffffffffff1614610aed57600080fd5b600060048381548110610afc57fe5b90600052602060002090600302019050600063ffffffff168160020160069054906101000a900463ffffffff1663ffffffff1611610b3957600080fd5b6000610b456064611282565b9050600b548111610ba557610b7e60018360020160069054906101000a900463ffffffff1663ffffffff1661125a90919063ffffffff16565b8260020160066101000a81548163ffffffff021916908363ffffffff160217905550610bff565b610bd3600183600201600a9054906101000a900463ffffffff1663ffffffff1661125a90919063ffffffff16565b82600201600a6101000a81548163ffffffff021916908363ffffffff160217905550610bfe82611316565b5b50505050565b806005600082815260200190815260200160002060009054906101000a900473ffffffffffffffffffffffffffffffffffffffff1673ffffffffffffffffffffffffffffffffffffffff163373ffffffffffffffffffffffffffffffffffffffff1614610c7157600080fd5b600060048381548110610c8057fe5b906000526020600020906003020190506001151581600201600f9054906101000a900460ff16151514610cb257600080fd5b6000610cbe6064611282565b9050600a548111610d1e57610cf360018360020160009054906101000a900461ffff1661ffff1661134090919063ffffffff16565b61ffff168260020160066101000a81548163ffffffff021916908363ffffffff160217905550610d78565b610d4c600183600201600a9054906101000a900463ffffffff1663ffffffff1661125a90919063ffffffff16565b82600201600a6101000a81548163ffffffff021916908363ffffffff160217905550610d7782611316565b5b50505050565b60008060009054906101000a900473ffffffffffffffffffffffffffffffffffffffff16905090565b6000600660003373ffffffffffffffffffffffffffffffffffffffff1673ffffffffffffffffffffffffffffffffffffffff1681526020019081526020016000205414610df357600080fd5b6000610dfe82611364565b905060648181610e0a57fe5b0681039050610e1982826113f2565b5050565b60008060009054906101000a900473ffffffffffffffffffffffffffffffffffffffff1673ffffffffffffffffffffffffffffffffffffffff163373ffffffffffffffffffffffffffffffffffffffff1614905090565b606080600660008473ffffffffffffffffffffffffffffffffffffffff1673ffffffffffffffffffffffffffffffffffffffff16815260200190815260200160002054604051908082528060200260200182016040528015610ee55781602001602082028038833980820191505090505b509050600080905060008090505b600480549050811015610f96578473ffffffffffffffffffffffffffffffffffffffff166005600083815260200190815260200160002060009054906101000a900473ffffffffffffffffffffffffffffffffffffffff1673ffffffffffffffffffffffffffffffffffffffff161415610f895780838381518110610f7457fe5b60200260200101818152505081806001019250505b8080600101915050610ef3565b508192505050919050565b60048181548110610fae57fe5b9060005260206000209060030201600091509050806000018054600181600116156101000203166002900480601f01602080910402602001604051908101604052809291908181526020018280546001816001161561010002031660029004801561105a5780601f1061102f5761010080835404028352916020019161105a565b820191906000526020600020905b81548152906001019060200180831161103d57829003601f168201915b5050505050908060010154908060020160009054906101000a900461ffff16908060020160029054906101000a900463ffffffff16908060020160069054906101000a900463ffffffff169080600201600a9054906101000a900463ffffffff169080600201600e9054906101000a900460ff169080600201600f9054906101000a900460ff16905088565b6110ee610e1d565b6110f757600080fd5b8060078190555050565b60066020528060005260406000206000915090505481565b611121610e1d565b61112a57600080fd5b6111338161171d565b50565b806005600082815260200190815260200160002060009054906101000a900473ffffffffffffffffffffffffffffffffffffffff1673ffffffffffffffffffffffffffffffffffffffff163373ffffffffffffffffffffffffffffffffffffffff16146111a257600080fd5b6000600483815481106111b157fe5b9060005260206000209060030201905060006111cd6064611282565b905060085481116111fa57600182600201600e6101000a81548160ff021916908315150217905550611254565b611228600183600201600a9054906101000a900463ffffffff1663ffffffff1661125a90919063ffffffff16565b82600201600a6101000a81548163ffffffff021916908363ffffffff16021790555061125382611316565b5b50505050565b60008082840190508363ffffffff168163ffffffff16101561127857fe5b8091505092915050565b6000600c600081548092919060010191905055600c81905550814233600c54604051602001808481526020018373ffffffffffffffffffffffffffffffffffffffff1673ffffffffffffffffffffffffffffffffffffffff1660601b815260140182815260200193505050506040516020818303038152906040528051906020012060001c8161130e57fe5b069050919050565b60035442018160020160026101000a81548163ffffffff021916908363ffffffff16021790555050565b60008082840190508361ffff168161ffff16101561135a57fe5b8091505092915050565b600080826040516020018082805190602001908083835b6020831061139e578051825260208201915060208101905060208303925061137b565b6001836020036101000a0380198251168184511680821785525050505050509050019150506040516020818303038152906040528051906020012060001c905060025481816113e957fe5b06915050919050565b600060016004604051806101000160405280868152602001858152602001600061ffff168152602001600354420163ffffffff168152602001600063ffffffff168152602001600063ffffffff1681526020016000151581526020016000151581525090806001815401808255809150509060018203906000526020600020906003020160009091929091909150600082015181600001908051906020019061149c929190611831565b506020820151816001015560408201518160020160006101000a81548161ffff021916908361ffff16021790555060608201518160020160026101000a81548163ffffffff021916908363ffffffff16021790555060808201518160020160066101000a81548163ffffffff021916908363ffffffff16021790555060a082015181600201600a6101000a81548163ffffffff021916908363ffffffff16021790555060c082015181600201600e6101000a81548160ff02191690831515021790555060e082015181600201600f6101000a81548160ff0219169083151502179055505050039050336005600083815260200190815260200160002060006101000a81548173ffffffffffffffffffffffffffffffffffffffff021916908373ffffffffffffffffffffffffffffffffffffffff1602179055506116296001600660003373ffffffffffffffffffffffffffffffffffffffff1673ffffffffffffffffffffffffffffffffffffffff1681526020019081526020016000205461181590919063ffffffff16565b600660003373ffffffffffffffffffffffffffffffffffffffff1673ffffffffffffffffffffffffffffffffffffffff168152602001908152602001600020819055507f6a5a3f44c8cd4a79f4c14591e1697a24a0806869bd118a37432415ac2bf11b9b8184846040518084815260200180602001838152602001828103825284818151815260200191508051906020019080838360005b838110156116dc5780820151818401526020810190506116c1565b50505050905090810190601f1680156117095780820380516001836020036101000a031916815260200191505b5094505050505060405180910390a1505050565b600073ffffffffffffffffffffffffffffffffffffffff168173ffffffffffffffffffffffffffffffffffffffff16141561175757600080fd5b8073ffffffffffffffffffffffffffffffffffffffff166000809054906101000a900473ffffffffffffffffffffffffffffffffffffffff1673ffffffffffffffffffffffffffffffffffffffff167f8be0079c531659141344cd1fd0a4f28419497f9722a3daafe3b4186f6b6457e060405160405180910390a3806000806101000a81548173ffffffffffffffffffffffffffffffffffffffff021916908373ffffffffffffffffffffffffffffffffffffffff16021790555050565b60008082840190508381101561182757fe5b8091505092915050565b828054600181600116156101000203166002900490600052602060002090601f016020900481019282601f1061187257805160ff19168380011785556118a0565b828001600101855582156118a0579182015b8281111561189f578251825591602001919060010190611884565b5b5090506118ad91906118b1565b5090565b6118d391905b808211156118cf5760008160009055506001016118b7565b5090565b9056fea165627a7a72305820fe9a01aadbac7431e00d85792dc385f832bed4f71a0bad65269ad85bfe2fad890029",
  "source": "pragma solidity >=0.5.0 <0.6.0;\r\nimport \"./themaker.sol\";\r\n\r\ncontract Helper is TheMaker {\r\n    \r\n  uint levelUpFee = 0.001 ether;\r\n\r\n    modifier onlyOwnerOf(uint _ancestorId) {\r\n        require(msg.sender == ancestorToOwner[_ancestorId]);\r\n        _;\r\n    }\r\n    \r\n  function withdraw(uint _ancestorId) external onlyOwnerOf(_ancestorId) {\r\n    msg.sender.transfer(address(this).balance);\r\n  }\r\n\r\n  function setLevelUpFee(uint _fee) external onlyOwner {\r\n    levelUpFee = _fee;\r\n  }\r\n\r\n  function levelUp(uint _ancestorId) external payable {\r\n    require(msg.value == levelUpFee);\r\n    ancestors[_ancestorId].traumaCount = ancestors[_ancestorId].traumaCount.add(1);\r\n  }\r\n\r\n  function getAncestorsByOwner(address _owner) external view returns(uint[] memory) {\r\n    uint[] memory result = new uint[](ancestorCount[_owner]);\r\n    uint counter = 0;\r\n    for (uint i = 0; i < ancestors.length; i++) {\r\n      if (ancestorToOwner[i] == _owner) {\r\n        result[counter] = i;\r\n        counter++;\r\n      }\r\n    }\r\n    return result;\r\n  }\r\n\r\n  function _triggerCooldown(Ancestor storage _ancestor) internal {\r\n    _ancestor.readyTime = uint32(now + cooldownTime);\r\n  }\r\n\r\n  function _isReady(Ancestor storage _ancestor) internal view returns (bool) {\r\n      return (_ancestor.readyTime <= now);\r\n  }\r\n\r\n\r\n      uint dateProbability = 50;\r\n    uint bringHomeProbability = 40;\r\n    uint traumatizeProbability = 20;\r\n    uint donScalpProbability = 20;\r\n    uint randNonce = 0;\r\n\r\n   function randMod(uint _modulus) internal returns(uint) {\r\n    randNonce = randNonce++;\r\n    return uint(keccak256(abi.encodePacked(now, msg.sender, randNonce))) % _modulus;\r\n  }\r\n\r\n    function _date(uint _ancestorId) external onlyOwnerOf(_ancestorId) {\r\n        Ancestor storage myAncestor = ancestors[_ancestorId];\r\n        uint rand = randMod(100);\r\n        if (rand <= dateProbability) {\r\n            myAncestor.isTaken = true;\r\n        } else {\r\n            myAncestor.rejections = myAncestor.rejections.add(1);\r\n            _triggerCooldown(myAncestor);\r\n        }\r\n    }\r\n\r\n    function _bringHome(uint _ancestorId) external onlyOwnerOf(_ancestorId) {\r\n        Ancestor storage myAncestor = ancestors[_ancestorId];\r\n        require(myAncestor.isTaken == true);       \r\n        uint rand = randMod(100);\r\n        if (rand <= bringHomeProbability) {\r\n            myAncestor.canCrawl == true;\r\n        } else {\r\n            myAncestor.rejections = myAncestor.rejections.add(1);\r\n            _triggerCooldown(myAncestor);\r\n        }\r\n    }\r\n    \r\n    function donScalp(uint _ancestorId) external onlyOwnerOf(_ancestorId) {\r\n        Ancestor storage myAncestor = ancestors[_ancestorId];\r\n        require(myAncestor.canCrawl == true);\r\n        uint rand = randMod(100);\r\n        if (rand <= traumatizeProbability) {\r\n            myAncestor.traumaCount = myAncestor.scalps.add(1);\r\n        } else {\r\n            myAncestor.rejections = myAncestor.rejections.add(1);\r\n            _triggerCooldown(myAncestor);\r\n        }\r\n    }\r\n\r\n    function _traumatize(uint _ancestorId) external onlyOwnerOf(_ancestorId) {\r\n        Ancestor storage myAncestor = ancestors[_ancestorId];\r\n        require(myAncestor.traumaCount > uint32(0));\r\n        uint rand = randMod(100);\r\n        if (rand <= donScalpProbability) {\r\n            myAncestor.traumaCount = myAncestor.traumaCount.add(1);\r\n        } else {\r\n            myAncestor.rejections = myAncestor.rejections.add(1);\r\n            _triggerCooldown(myAncestor);\r\n        }\r\n\r\n    }\r\n}",
  "sourcePath": "C:\\Users\\allan\\Desktop\\portfolio\\Ancestor\\contracts\\helper.sol",
  "compiler": {
    "name": "solc",
    "version": "0.5.8+commit.23d335f2.Emscripten.clang"
  },
  "schemaVersion": "3.0.15",
  "updatedAt": "2020-11-11T21:07:28.761Z",
  "devdoc": {
    "methods": {
      "isOwner()": {
        "return": "true if `msg.sender` is the owner of the contract.\r"
      },
      "owner()": {
        "return": "the address of the owner.\r"
      },
      "renounceOwnership()": {
        "details": "Allows the current owner to relinquish control of the contract.\r"
      },
      "transferOwnership(address)": {
        "details": "Allows the current owner to transfer control of the contract to a newOwner.\r",
        "params": {
          "newOwner": "The address to transfer ownership to.\r"
        }
      }
    }
  },
  "userdoc": {
    "methods": {
      "renounceOwnership()": {
        "notice": "Renouncing to ownership will leave the contract without an owner.\r It will not be possible to call the functions with the `onlyOwner`\r modifier anymore.\r"
      }
    }
  }
}