{
  "contractName": "Abilities",
  "abi": [
    {
      "constant": false,
      "inputs": [
        {
          "name": "_ancestorId",
          "type": "uint256"
        }
      ],
      "name": "levelUp",
      "outputs": [],
      "payable": true,
      "stateMutability": "payable",
      "type": "function"
    },
    {
      "constant": true,
      "inputs": [
        {
          "name": "",
          "type": "uint256"
        }
      ],
      "name": "ancestorToOwner",
      "outputs": [
        {
          "name": "",
          "type": "address"
        }
      ],
      "payable": false,
      "stateMutability": "view",
      "type": "function"
    },
    {
      "constant": false,
      "inputs": [
        {
          "name": "_ancestorId",
          "type": "uint256"
        }
      ],
      "name": "withdraw",
      "outputs": [],
      "payable": false,
      "stateMutability": "nonpayable",
      "type": "function"
    },
    {
      "constant": false,
      "inputs": [
        {
          "name": "_name",
          "type": "string"
        },
        {
          "name": "seed",
          "type": "uint256"
        }
      ],
      "name": "_makeRandomAncestor",
      "outputs": [],
      "payable": false,
      "stateMutability": "nonpayable",
      "type": "function"
    },
    {
      "constant": false,
      "inputs": [],
      "name": "renounceOwnership",
      "outputs": [],
      "payable": false,
      "stateMutability": "nonpayable",
      "type": "function"
    },
    {
      "constant": true,
      "inputs": [
        {
          "name": "seed",
          "type": "uint256"
        }
      ],
      "name": "_randomGenerator",
      "outputs": [
        {
          "name": "",
          "type": "uint256"
        }
      ],
      "payable": false,
      "stateMutability": "view",
      "type": "function"
    },
    {
      "constant": true,
      "inputs": [],
      "name": "owner",
      "outputs": [
        {
          "name": "",
          "type": "address"
        }
      ],
      "payable": false,
      "stateMutability": "view",
      "type": "function"
    },
    {
      "constant": true,
      "inputs": [],
      "name": "isOwner",
      "outputs": [
        {
          "name": "",
          "type": "bool"
        }
      ],
      "payable": false,
      "stateMutability": "view",
      "type": "function"
    },
    {
      "constant": true,
      "inputs": [
        {
          "name": "_owner",
          "type": "address"
        }
      ],
      "name": "getAncestorsByOwner",
      "outputs": [
        {
          "name": "",
          "type": "uint256[]"
        }
      ],
      "payable": false,
      "stateMutability": "view",
      "type": "function"
    },
    {
      "constant": true,
      "inputs": [
        {
          "name": "",
          "type": "uint256"
        }
      ],
      "name": "ancestors",
      "outputs": [
        {
          "name": "name",
          "type": "string"
        },
        {
          "name": "dna",
          "type": "uint256"
        },
        {
          "name": "scalps",
          "type": "uint16"
        },
        {
          "name": "readyTime",
          "type": "uint32"
        },
        {
          "name": "traumaCount",
          "type": "uint32"
        },
        {
          "name": "rejections",
          "type": "uint32"
        },
        {
          "name": "isTaken",
          "type": "bool"
        },
        {
          "name": "canCrawl",
          "type": "bool"
        }
      ],
      "payable": false,
      "stateMutability": "view",
      "type": "function"
    },
    {
      "constant": false,
      "inputs": [
        {
          "name": "_fee",
          "type": "uint256"
        }
      ],
      "name": "setLevelUpFee",
      "outputs": [],
      "payable": false,
      "stateMutability": "nonpayable",
      "type": "function"
    },
    {
      "constant": true,
      "inputs": [
        {
          "name": "",
          "type": "address"
        }
      ],
      "name": "ancestorCount",
      "outputs": [
        {
          "name": "",
          "type": "uint256"
        }
      ],
      "payable": false,
      "stateMutability": "view",
      "type": "function"
    },
    {
      "constant": false,
      "inputs": [
        {
          "name": "newOwner",
          "type": "address"
        }
      ],
      "name": "transferOwnership",
      "outputs": [],
      "payable": false,
      "stateMutability": "nonpayable",
      "type": "function"
    },
    {
      "anonymous": false,
      "inputs": [
        {
          "indexed": false,
          "name": "id",
          "type": "uint256"
        },
        {
          "indexed": false,
          "name": "name",
          "type": "string"
        },
        {
          "indexed": false,
          "name": "dna",
          "type": "uint256"
        }
      ],
      "name": "NewAncestor",
      "type": "event"
    },
    {
      "anonymous": false,
      "inputs": [
        {
          "indexed": true,
          "name": "previousOwner",
          "type": "address"
        },
        {
          "indexed": true,
          "name": "newOwner",
          "type": "address"
        }
      ],
      "name": "OwnershipTransferred",
      "type": "event"
    },
    {
      "constant": false,
      "inputs": [
        {
          "name": "_ancestorId",
          "type": "uint256"
        },
        {
          "name": "_crush",
          "type": "uint256"
        }
      ],
      "name": "_date",
      "outputs": [],
      "payable": false,
      "stateMutability": "nonpayable",
      "type": "function"
    },
    {
      "constant": false,
      "inputs": [
        {
          "name": "_ancestorId",
          "type": "uint256"
        },
        {
          "name": "_crush",
          "type": "uint256"
        }
      ],
      "name": "_bringHome",
      "outputs": [],
      "payable": false,
      "stateMutability": "nonpayable",
      "type": "function"
    },
    {
      "constant": false,
      "inputs": [
        {
          "name": "_ancestorId",
          "type": "uint256"
        }
      ],
      "name": "donScalp",
      "outputs": [],
      "payable": false,
      "stateMutability": "nonpayable",
      "type": "function"
    },
    {
      "constant": false,
      "inputs": [
        {
          "name": "_ancestorId",
          "type": "uint256"
        },
        {
          "name": "_crush",
          "type": "uint256"
        }
      ],
      "name": "_traumatize",
      "outputs": [],
      "payable": false,
      "stateMutability": "nonpayable",
      "type": "function"
    }
  ],
  "bytecode": "0x60806040526010600155600154600a0a6002556201518060035566038d7ea4c68000600755603260085560286009556014600a556014600b556000600c55336000806101000a81548173ffffffffffffffffffffffffffffffffffffffff021916908373ffffffffffffffffffffffffffffffffffffffff1602179055506000809054906101000a900473ffffffffffffffffffffffffffffffffffffffff1673ffffffffffffffffffffffffffffffffffffffff16600073ffffffffffffffffffffffffffffffffffffffff167f8be0079c531659141344cd1fd0a4f28419497f9722a3daafe3b4186f6b6457e060405160405180910390a3611abe806101086000396000f3fe6080604052600436106100eb576000357c0100000000000000000000000000000000000000000000000000000000900480630ce90ec2146100f0578063173549671461011e5780632e1a7d4d146101995780632e2a92ee146101d45780633b76f676146102195780634c335b2f146102eb578063715018a6146103305780637acfd03e14610347578063801f9a181461038c578063840f59f3146103c75780638da5cb5b146104165780638f32d59b1461046d5780639b127d1a1461049c578063a0680aae14610542578063ccf670f81461065b578063d1a6497c14610696578063f2fde38b146106fb575b600080fd5b61011c6004803603602081101561010657600080fd5b810190808035906020019092919050505061074c565b005b34801561012a57600080fd5b506101576004803603602081101561014157600080fd5b81019080803590602001909291905050506107e7565b604051808273ffffffffffffffffffffffffffffffffffffffff1673ffffffffffffffffffffffffffffffffffffffff16815260200191505060405180910390f35b3480156101a557600080fd5b506101d2600480360360208110156101bc57600080fd5b810190808035906020019092919050505061081a565b005b3480156101e057600080fd5b50610217600480360360408110156101f757600080fd5b8101908080359060200190929190803590602001909291905050506108ea565b005b34801561022557600080fd5b506102e96004803603604081101561023c57600080fd5b810190808035906020019064010000000081111561025957600080fd5b82018360208201111561026b57600080fd5b8035906020019184600183028401116401000000008311171561028d57600080fd5b91908080601f016020809104026020016040519081016040528093929190818152602001838380828437600081840152601f19601f82011690508083019250505050505050919291929080359060200190929190505050610ab8565b005b3480156102f757600080fd5b5061032e6004803603604081101561030e57600080fd5b810190808035906020019092919080359060200190929190505050610b33565b005b34801561033c57600080fd5b50610345610d47565b005b34801561035357600080fd5b5061038a6004803603604081101561036a57600080fd5b810190808035906020019092919080359060200190929190505050610e19565b005b34801561039857600080fd5b506103c5600480360360208110156103af57600080fd5b8101908080359060200190929190505050610fae565b005b3480156103d357600080fd5b50610400600480360360208110156103ea57600080fd5b810190808035906020019092919050505061114c565b6040518082815260200191505060405180910390f35b34801561042257600080fd5b5061042b61118c565b604051808273ffffffffffffffffffffffffffffffffffffffff1673ffffffffffffffffffffffffffffffffffffffff16815260200191505060405180910390f35b34801561047957600080fd5b506104826111b5565b604051808215151515815260200191505060405180910390f35b3480156104a857600080fd5b506104eb600480360360208110156104bf57600080fd5b81019080803573ffffffffffffffffffffffffffffffffffffffff16906020019092919050505061120c565b6040518080602001828103825283818151815260200191508051906020019060200280838360005b8381101561052e578082015181840152602081019050610513565b505050509050019250505060405180910390f35b34801561054e57600080fd5b5061057b6004803603602081101561056557600080fd5b810190808035906020019092919050505061133d565b60405180806020018981526020018861ffff1661ffff1681526020018763ffffffff1663ffffffff1681526020018663ffffffff1663ffffffff1681526020018563ffffffff1663ffffffff168152602001841515151581526020018315151515815260200182810382528a818151815260200191508051906020019080838360005b838110156106195780820151818401526020810190506105fe565b50505050905090810190601f1680156106465780820380516001836020036101000a031916815260200191505b50995050505050505050505060405180910390f35b34801561066757600080fd5b506106946004803603602081101561067e57600080fd5b8101908080359060200190929190505050611484565b005b3480156106a257600080fd5b506106e5600480360360208110156106b957600080fd5b81019080803573ffffffffffffffffffffffffffffffffffffffff1690602001909291905050506114a1565b6040518082815260200191505060405180910390f35b34801561070757600080fd5b5061074a6004803603602081101561071e57600080fd5b81019080803573ffffffffffffffffffffffffffffffffffffffff1690602001909291905050506114b9565b005b6007543414151561075c57600080fd5b6107a6600160048381548110151561077057fe5b906000526020600020906003020160020160069054906101000a900463ffffffff1663ffffffff166114d890919063ffffffff16565b6004828154811015156107b557fe5b906000526020600020906003020160020160066101000a81548163ffffffff021916908363ffffffff16021790555050565b60056020528060005260406000206000915054906101000a900473ffffffffffffffffffffffffffffffffffffffff1681565b806005600082815260200190815260200160002060009054906101000a900473ffffffffffffffffffffffffffffffffffffffff1673ffffffffffffffffffffffffffffffffffffffff163373ffffffffffffffffffffffffffffffffffffffff1614151561088857600080fd5b3373ffffffffffffffffffffffffffffffffffffffff166108fc3073ffffffffffffffffffffffffffffffffffffffff16319081150290604051600060405180830381858888f193505050501580156108e5573d6000803e3d6000fd5b505050565b816005600082815260200190815260200160002060009054906101000a900473ffffffffffffffffffffffffffffffffffffffff1673ffffffffffffffffffffffffffffffffffffffff163373ffffffffffffffffffffffffffffffffffffffff1614151561095857600080fd5b600060048481548110151561096957fe5b90600052602060002090600302019050600060048481548110151561098a57fe5b906000526020600020906003020190506001151582600201600e9054906101000a900460ff1615151415156109be57600080fd5b60006109ca6064611502565b9050600954811115156109f1576001151583600201600f9054906101000a90505050610ab0565b610a1f600184600201600a9054906101000a900463ffffffff1663ffffffff166114d890919063ffffffff16565b83600201600a6101000a81548163ffffffff021916908363ffffffff160217905550600083600201600e6101000a81548160ff021916908315150217905550610a8860018360020160009054906101000a900461ffff1661ffff166115aa90919063ffffffff16565b8260020160006101000a81548161ffff021916908361ffff160217905550610aaf836115d0565b5b505050505050565b6000600660003373ffffffffffffffffffffffffffffffffffffffff1673ffffffffffffffffffffffffffffffffffffffff16815260200190815260200160002054141515610b0657600080fd5b6000610b11826115fa565b9050606481811515610b1f57fe5b0681039050610b2e838261161e565b505050565b816005600082815260200190815260200160002060009054906101000a900473ffffffffffffffffffffffffffffffffffffffff1673ffffffffffffffffffffffffffffffffffffffff163373ffffffffffffffffffffffffffffffffffffffff16141515610ba157600080fd5b6000600484815481101515610bb257fe5b906000526020600020906003020190506000600484815481101515610bd357fe5b90600052602060002090600302019050600063ffffffff168260020160069054906101000a900463ffffffff1663ffffffff16111515610c1257600080fd5b6000610c1e6064611502565b9050600b5481111515610c8057610c5960018460020160069054906101000a900463ffffffff1663ffffffff166114d890919063ffffffff16565b8360020160066101000a81548163ffffffff021916908363ffffffff160217905550610d3f565b610cae600184600201600a9054906101000a900463ffffffff1663ffffffff166114d890919063ffffffff16565b83600201600a6101000a81548163ffffffff021916908363ffffffff160217905550600083600201600e6101000a81548160ff021916908315150217905550610d1760018360020160009054906101000a900461ffff1661ffff166118b490919063ffffffff16565b8260020160006101000a81548161ffff021916908361ffff160217905550610d3e836115d0565b5b505050505050565b610d4f6111b5565b1515610d5a57600080fd5b600073ffffffffffffffffffffffffffffffffffffffff166000809054906101000a900473ffffffffffffffffffffffffffffffffffffffff1673ffffffffffffffffffffffffffffffffffffffff167f8be0079c531659141344cd1fd0a4f28419497f9722a3daafe3b4186f6b6457e060405160405180910390a360008060006101000a81548173ffffffffffffffffffffffffffffffffffffffff021916908373ffffffffffffffffffffffffffffffffffffffff160217905550565b816005600082815260200190815260200160002060009054906101000a900473ffffffffffffffffffffffffffffffffffffffff1673ffffffffffffffffffffffffffffffffffffffff163373ffffffffffffffffffffffffffffffffffffffff16141515610e8757600080fd5b6000600484815481101515610e9857fe5b906000526020600020906003020190506000600484815481101515610eb957fe5b906000526020600020906003020190506000610ed56064611502565b905060085481111515610f0457600183600201600e6101000a81548160ff021916908315150217905550610fa6565b610f32600184600201600a9054906101000a900463ffffffff1663ffffffff166114d890919063ffffffff16565b83600201600a6101000a81548163ffffffff021916908363ffffffff160217905550610f7e60018360020160009054906101000a900461ffff1661ffff166115aa90919063ffffffff16565b8260020160006101000a81548161ffff021916908361ffff160217905550610fa5836115d0565b5b505050505050565b806005600082815260200190815260200160002060009054906101000a900473ffffffffffffffffffffffffffffffffffffffff1673ffffffffffffffffffffffffffffffffffffffff163373ffffffffffffffffffffffffffffffffffffffff1614151561101c57600080fd5b600060048381548110151561102d57fe5b906000526020600020906003020190506001151581600201600f9054906101000a900460ff16151514151561106157600080fd5b600061106d6064611502565b9050600a54811115156110cf576110a460018360020160009054906101000a900461ffff1661ffff166115aa90919063ffffffff16565b61ffff168260020160066101000a81548163ffffffff021916908363ffffffff160217905550611146565b6110fd600183600201600a9054906101000a900463ffffffff1663ffffffff166114d890919063ffffffff16565b82600201600a6101000a81548163ffffffff021916908363ffffffff160217905550600082600201600f6101000a81548160ff021916908315150217905550611145826115d0565b5b50505050565b6000600143034082604051602001808381526020018281526020019250505060405160208183030381529060405280519060200120600190049050919050565b60008060009054906101000a900473ffffffffffffffffffffffffffffffffffffffff16905090565b60008060009054906101000a900473ffffffffffffffffffffffffffffffffffffffff1673ffffffffffffffffffffffffffffffffffffffff163373ffffffffffffffffffffffffffffffffffffffff1614905090565b606080600660008473ffffffffffffffffffffffffffffffffffffffff1673ffffffffffffffffffffffffffffffffffffffff1681526020019081526020016000205460405190808252806020026020018201604052801561127d5781602001602082028038833980820191505090505b509050600080905060008090505b600480549050811015611332578473ffffffffffffffffffffffffffffffffffffffff166005600083815260200190815260200160002060009054906101000a900473ffffffffffffffffffffffffffffffffffffffff1673ffffffffffffffffffffffffffffffffffffffff1614156113255780838381518110151561130e57fe5b906020019060200201818152505081806001019250505b808060010191505061128b565b508192505050919050565b60048181548110151561134c57fe5b9060005260206000209060030201600091509050806000018054600181600116156101000203166002900480601f0160208091040260200160405190810160405280929190818152602001828054600181600116156101000203166002900480156113f85780601f106113cd576101008083540402835291602001916113f8565b820191906000526020600020905b8154815290600101906020018083116113db57829003601f168201915b5050505050908060010154908060020160009054906101000a900461ffff16908060020160029054906101000a900463ffffffff16908060020160069054906101000a900463ffffffff169080600201600a9054906101000a900463ffffffff169080600201600e9054906101000a900460ff169080600201600f9054906101000a900460ff16905088565b61148c6111b5565b151561149757600080fd5b8060078190555050565b60066020528060005260406000206000915090505481565b6114c16111b5565b15156114cc57600080fd5b6114d5816118d5565b50565b60008082840190508363ffffffff168163ffffffff16101515156114f857fe5b8091505092915050565b600061151a6001600c546119cf90919063ffffffff16565b600c81905550814233600c54604051602001808481526020018373ffffffffffffffffffffffffffffffffffffffff1673ffffffffffffffffffffffffffffffffffffffff166c01000000000000000000000000028152601401828152602001935050505060405160208183030381529060405280519060200120600190048115156115a257fe5b069050919050565b60008082840190508361ffff168161ffff16101515156115c657fe5b8091505092915050565b60035442018160020160026101000a81548163ffffffff021916908363ffffffff16021790555050565b6000806116068361114c565b90506002548181151561161557fe5b06915050919050565b60006001600461010060405190810160405280868152602001858152602001600061ffff168152602001600354420163ffffffff168152602001600063ffffffff168152602001600063ffffffff168152602001600015158152602001600015158152509080600181540180825580915050906001820390600052602060002090600302016000909192909190915060008201518160000190805190602001906116c99291906119ed565b506020820151816001015560408201518160020160006101000a81548161ffff021916908361ffff16021790555060608201518160020160026101000a81548163ffffffff021916908363ffffffff16021790555060808201518160020160066101000a81548163ffffffff021916908363ffffffff16021790555060a082015181600201600a6101000a81548163ffffffff021916908363ffffffff16021790555060c082015181600201600e6101000a81548160ff02191690831515021790555060e082015181600201600f6101000a81548160ff0219169083151502179055505050039050336005600083815260200190815260200160002060006101000a81548173ffffffffffffffffffffffffffffffffffffffff021916908373ffffffffffffffffffffffffffffffffffffffff1602179055507f6a5a3f44c8cd4a79f4c14591e1697a24a0806869bd118a37432415ac2bf11b9b8184846040518084815260200180602001838152602001828103825284818151815260200191508051906020019080838360005b83811015611873578082015181840152602081019050611858565b50505050905090810190601f1680156118a05780820380516001836020036101000a031916815260200191505b5094505050505060405180910390a1505050565b60008261ffff168261ffff16111515156118ca57fe5b818303905092915050565b600073ffffffffffffffffffffffffffffffffffffffff168173ffffffffffffffffffffffffffffffffffffffff161415151561191157600080fd5b8073ffffffffffffffffffffffffffffffffffffffff166000809054906101000a900473ffffffffffffffffffffffffffffffffffffffff1673ffffffffffffffffffffffffffffffffffffffff167f8be0079c531659141344cd1fd0a4f28419497f9722a3daafe3b4186f6b6457e060405160405180910390a3806000806101000a81548173ffffffffffffffffffffffffffffffffffffffff021916908373ffffffffffffffffffffffffffffffffffffffff16021790555050565b60008082840190508381101515156119e357fe5b8091505092915050565b828054600181600116156101000203166002900490600052602060002090601f016020900481019282601f10611a2e57805160ff1916838001178555611a5c565b82800160010185558215611a5c579182015b82811115611a5b578251825591602001919060010190611a40565b5b509050611a699190611a6d565b5090565b611a8f91905b80821115611a8b576000816000905550600101611a73565b5090565b9056fea165627a7a723058209b1940056cca038206beff4b190897ac9f835ae656221fc35038e316eb716a140029",
  "source": "pragma solidity >=0.5.0 <0.6.0;\r\nimport \"./helper.sol\";\r\n\r\ncontract Abilities is Helper {\r\n    uint dateProbability = 50;\r\n    uint bringHomeProbability = 40;\r\n    uint traumatizeProbability = 20;\r\n    uint donScalpProbability = 20;\r\n    uint randNonce = 0;\r\n\r\n   function randMod(uint _modulus) internal returns(uint) {\r\n    randNonce = randNonce.add(1);\r\n    return uint(keccak256(abi.encodePacked(now, msg.sender, randNonce))) % _modulus;\r\n  }\r\n\r\n    function _date(uint _ancestorId, uint _crush) external onlyOwnerOf(_ancestorId) {\r\n        Ancestor storage myAncestor = ancestors[_ancestorId];\r\n        Ancestor storage crush = ancestors[_crush];\r\n        uint rand = randMod(100);\r\n        if (rand <= dateProbability) {\r\n            myAncestor.isTaken = true;\r\n        } else {\r\n            myAncestor.rejections = myAncestor.rejections.add(1);\r\n            crush.scalps = crush.scalps.add(1);\r\n            _triggerCooldown(myAncestor);\r\n        }\r\n    }\r\n\r\n    function _bringHome(uint _ancestorId, uint _crush) external onlyOwnerOf(_ancestorId) {\r\n        Ancestor storage myAncestor = ancestors[_ancestorId];\r\n        Ancestor storage crush = ancestors[_crush];\r\n        require(myAncestor.isTaken == true);       \r\n        uint rand = randMod(100);\r\n        if (rand <= bringHomeProbability) {\r\n            myAncestor.canCrawl == true;\r\n        } else {\r\n            myAncestor.rejections = myAncestor.rejections.add(1);\r\n            myAncestor.isTaken = false;\r\n            crush.scalps = crush.scalps.add(1);\r\n            _triggerCooldown(myAncestor);\r\n        }\r\n    }\r\n    \r\n    function donScalp(uint _ancestorId) external onlyOwnerOf(_ancestorId) {\r\n        Ancestor storage myAncestor = ancestors[_ancestorId];\r\n        require(myAncestor.canCrawl == true);\r\n        uint rand = randMod(100);\r\n        if (rand <= traumatizeProbability) {\r\n            myAncestor.traumaCount = myAncestor.scalps.add(1);\r\n        } else {\r\n            myAncestor.rejections = myAncestor.rejections.add(1);\r\n            myAncestor.canCrawl = false;\r\n            _triggerCooldown(myAncestor);\r\n        }\r\n    }\r\n\r\n    function _traumatize(uint _ancestorId, uint _crush) external onlyOwnerOf(_ancestorId) {\r\n        Ancestor storage myAncestor = ancestors[_ancestorId];\r\n        Ancestor storage crush = ancestors[_crush];\r\n        require(myAncestor.traumaCount > uint32(0));\r\n        uint rand = randMod(100);\r\n        if (rand <= donScalpProbability) {\r\n            myAncestor.traumaCount = myAncestor.traumaCount.add(1);\r\n            } else {\r\n            myAncestor.rejections = myAncestor.rejections.add(1);\r\n            myAncestor.isTaken = false;\r\n            crush.scalps = crush.scalps.sub(1);\r\n            _triggerCooldown(myAncestor);\r\n        }\r\n\r\n    }\r\n\r\n}",
  "sourcePath": "C:/Users/allan/Desktop/portfolio/Ancestor/contracts/abilities.sol",
  "compiler": {
    "name": "solc",
    "version": "0.5.1+commit.c8a2cb62.Emscripten.clang"
  },
  "schemaVersion": "3.0.15",
  "updatedAt": "2020-11-30T20:59:43.065Z",
  "devdoc": {
    "methods": {
      "isOwner()": {
        "return": "true if `msg.sender` is the owner of the contract.\r"
      },
      "owner()": {
        "return": "the address of the owner.\r"
      },
      "renounceOwnership()": {
        "details": "Allows the current owner to relinquish control of the contract.\r"
      },
      "transferOwnership(address)": {
        "details": "Allows the current owner to transfer control of the contract to a newOwner.\r",
        "params": {
          "newOwner": "The address to transfer ownership to.\r"
        }
      }
    }
  },
  "userdoc": {
    "methods": {
      "renounceOwnership()": {
        "notice": "Renouncing to ownership will leave the contract without an owner.\r It will not be possible to call the functions with the `onlyOwner`\r modifier anymore.\r"
      }
    }
  }
}