{
  "contractName": "Abilities",
  "abi": [
    {
      "constant": false,
      "inputs": [
        {
          "name": "_ancestorId",
          "type": "uint256"
        }
      ],
      "name": "levelUp",
      "outputs": [],
      "payable": true,
      "stateMutability": "payable",
      "type": "function"
    },
    {
      "constant": true,
      "inputs": [
        {
          "name": "",
          "type": "uint256"
        }
      ],
      "name": "ancestorToOwner",
      "outputs": [
        {
          "name": "",
          "type": "address"
        }
      ],
      "payable": false,
      "stateMutability": "view",
      "type": "function"
    },
    {
      "constant": false,
      "inputs": [
        {
          "name": "_ancestorId",
          "type": "uint256"
        }
      ],
      "name": "withdraw",
      "outputs": [],
      "payable": false,
      "stateMutability": "nonpayable",
      "type": "function"
    },
    {
      "constant": false,
      "inputs": [],
      "name": "renounceOwnership",
      "outputs": [],
      "payable": false,
      "stateMutability": "nonpayable",
      "type": "function"
    },
    {
      "constant": true,
      "inputs": [],
      "name": "owner",
      "outputs": [
        {
          "name": "",
          "type": "address"
        }
      ],
      "payable": false,
      "stateMutability": "view",
      "type": "function"
    },
    {
      "constant": false,
      "inputs": [
        {
          "name": "_name",
          "type": "string"
        }
      ],
      "name": "_makeRandomAncestor",
      "outputs": [],
      "payable": false,
      "stateMutability": "nonpayable",
      "type": "function"
    },
    {
      "constant": true,
      "inputs": [],
      "name": "isOwner",
      "outputs": [
        {
          "name": "",
          "type": "bool"
        }
      ],
      "payable": false,
      "stateMutability": "view",
      "type": "function"
    },
    {
      "constant": true,
      "inputs": [
        {
          "name": "_owner",
          "type": "address"
        }
      ],
      "name": "getAncestorsByOwner",
      "outputs": [
        {
          "name": "",
          "type": "uint256[]"
        }
      ],
      "payable": false,
      "stateMutability": "view",
      "type": "function"
    },
    {
      "constant": true,
      "inputs": [
        {
          "name": "",
          "type": "uint256"
        }
      ],
      "name": "ancestors",
      "outputs": [
        {
          "name": "name",
          "type": "string"
        },
        {
          "name": "dna",
          "type": "uint256"
        },
        {
          "name": "scalps",
          "type": "uint16"
        },
        {
          "name": "readyTime",
          "type": "uint32"
        },
        {
          "name": "traumaCount",
          "type": "uint32"
        },
        {
          "name": "rejections",
          "type": "uint32"
        },
        {
          "name": "isTaken",
          "type": "bool"
        },
        {
          "name": "canCrawl",
          "type": "bool"
        }
      ],
      "payable": false,
      "stateMutability": "view",
      "type": "function"
    },
    {
      "constant": false,
      "inputs": [
        {
          "name": "_fee",
          "type": "uint256"
        }
      ],
      "name": "setLevelUpFee",
      "outputs": [],
      "payable": false,
      "stateMutability": "nonpayable",
      "type": "function"
    },
    {
      "constant": false,
      "inputs": [
        {
          "name": "newOwner",
          "type": "address"
        }
      ],
      "name": "transferOwnership",
      "outputs": [],
      "payable": false,
      "stateMutability": "nonpayable",
      "type": "function"
    },
    {
      "anonymous": false,
      "inputs": [
        {
          "indexed": false,
          "name": "id",
          "type": "uint256"
        },
        {
          "indexed": false,
          "name": "name",
          "type": "string"
        },
        {
          "indexed": false,
          "name": "dna",
          "type": "uint256"
        }
      ],
      "name": "NewAncestor",
      "type": "event"
    },
    {
      "anonymous": false,
      "inputs": [
        {
          "indexed": true,
          "name": "previousOwner",
          "type": "address"
        },
        {
          "indexed": true,
          "name": "newOwner",
          "type": "address"
        }
      ],
      "name": "OwnershipTransferred",
      "type": "event"
    },
    {
      "constant": false,
      "inputs": [
        {
          "name": "_ancestorId",
          "type": "uint256"
        },
        {
          "name": "_crush",
          "type": "uint256"
        },
        {
          "name": "_luckyNumber",
          "type": "uint256"
        }
      ],
      "name": "_date",
      "outputs": [],
      "payable": false,
      "stateMutability": "nonpayable",
      "type": "function"
    },
    {
      "constant": false,
      "inputs": [
        {
          "name": "_ancestorId",
          "type": "uint256"
        },
        {
          "name": "_crush",
          "type": "uint256"
        },
        {
          "name": "_luckyNumber",
          "type": "uint256"
        }
      ],
      "name": "_bringHome",
      "outputs": [],
      "payable": false,
      "stateMutability": "nonpayable",
      "type": "function"
    },
    {
      "constant": false,
      "inputs": [
        {
          "name": "_ancestorId",
          "type": "uint256"
        },
        {
          "name": "_luckyNumber",
          "type": "uint256"
        }
      ],
      "name": "donScalp",
      "outputs": [],
      "payable": false,
      "stateMutability": "nonpayable",
      "type": "function"
    },
    {
      "constant": false,
      "inputs": [
        {
          "name": "_ancestorId",
          "type": "uint256"
        },
        {
          "name": "_crush",
          "type": "uint256"
        },
        {
          "name": "_luckyNumber",
          "type": "uint256"
        }
      ],
      "name": "_traumatize",
      "outputs": [],
      "payable": false,
      "stateMutability": "nonpayable",
      "type": "function"
    }
  ],
  "bytecode": "0x60806040526010600155600154600a0a600255620151806003556104d260045566038d7ea4c6800060085560326009556028600a556014600b556014600c55336000806101000a81548173ffffffffffffffffffffffffffffffffffffffff021916908373ffffffffffffffffffffffffffffffffffffffff1602179055506000809054906101000a900473ffffffffffffffffffffffffffffffffffffffff1673ffffffffffffffffffffffffffffffffffffffff16600073ffffffffffffffffffffffffffffffffffffffff167f8be0079c531659141344cd1fd0a4f28419497f9722a3daafe3b4186f6b6457e060405160405180910390a36119b4806101096000396000f3fe6080604052600436106100d5576000357c0100000000000000000000000000000000000000000000000000000000900480630ce90ec2146100da57806317354967146101085780632e1a7d4d146101835780633701318f146101be578063715018a6146102035780638da5cb5b1461021a5780638daa76f7146102715780638f32d59b146103395780639b127d1a14610368578063a0680aae1461040e578063c60c3c3814610527578063ccf670f814610576578063d7357270146105b1578063de28f51514610600578063f2fde38b1461064f575b600080fd5b610106600480360360208110156100f057600080fd5b81019080803590602001909291905050506106a0565b005b34801561011457600080fd5b506101416004803603602081101561012b57600080fd5b810190808035906020019092919050505061073b565b604051808273ffffffffffffffffffffffffffffffffffffffff1673ffffffffffffffffffffffffffffffffffffffff16815260200191505060405180910390f35b34801561018f57600080fd5b506101bc600480360360208110156101a657600080fd5b810190808035906020019092919050505061076e565b005b3480156101ca57600080fd5b50610201600480360360408110156101e157600080fd5b81019080803590602001909291908035906020019092919050505061083e565b005b34801561020f57600080fd5b506102186109e8565b005b34801561022657600080fd5b5061022f610aba565b604051808273ffffffffffffffffffffffffffffffffffffffff1673ffffffffffffffffffffffffffffffffffffffff16815260200191505060405180910390f35b34801561027d57600080fd5b506103376004803603602081101561029457600080fd5b81019080803590602001906401000000008111156102b157600080fd5b8201836020820111156102c357600080fd5b803590602001918460018302840111640100000000831117156102e557600080fd5b91908080601f016020809104026020016040519081016040528093929190818152602001838380828437600081840152601f19601f820116905080830192505050505050509192919290505050610ae3565b005b34801561034557600080fd5b5061034e610b5f565b604051808215151515815260200191505060405180910390f35b34801561037457600080fd5b506103b76004803603602081101561038b57600080fd5b81019080803573ffffffffffffffffffffffffffffffffffffffff169060200190929190505050610bb6565b6040518080602001828103825283818151815260200191508051906020019060200280838360005b838110156103fa5780820151818401526020810190506103df565b505050509050019250505060405180910390f35b34801561041a57600080fd5b506104476004803603602081101561043157600080fd5b8101908080359060200190929190505050610ce7565b60405180806020018981526020018861ffff1661ffff1681526020018763ffffffff1663ffffffff1681526020018663ffffffff1663ffffffff1681526020018563ffffffff1663ffffffff168152602001841515151581526020018315151515815260200182810382528a818151815260200191508051906020019080838360005b838110156104e55780820151818401526020810190506104ca565b50505050905090810190601f1680156105125780820380516001836020036101000a031916815260200191505b50995050505050505050505060405180910390f35b34801561053357600080fd5b506105746004803603606081101561054a57600080fd5b81019080803590602001909291908035906020019092919080359060200190929190505050610e2e565b005b34801561058257600080fd5b506105af6004803603602081101561059957600080fd5b8101908080359060200190929190505050611008565b005b3480156105bd57600080fd5b506105fe600480360360608110156105d457600080fd5b81019080803590602001909291908035906020019092919080359060200190929190505050611025565b005b34801561060c57600080fd5b5061064d6004803603606081101561062357600080fd5b81019080803590602001909291908035906020019092919080359060200190929190505050611245565b005b34801561065b57600080fd5b5061069e6004803603602081101561067257600080fd5b81019080803573ffffffffffffffffffffffffffffffffffffffff1690602001909291905050506113e6565b005b600854341415156106b057600080fd5b6106fa60016005838154811015156106c457fe5b906000526020600020906003020160020160069054906101000a900463ffffffff1663ffffffff1661140590919063ffffffff16565b60058281548110151561070957fe5b906000526020600020906003020160020160066101000a81548163ffffffff021916908363ffffffff16021790555050565b60066020528060005260406000206000915054906101000a900473ffffffffffffffffffffffffffffffffffffffff1681565b806006600082815260200190815260200160002060009054906101000a900473ffffffffffffffffffffffffffffffffffffffff1673ffffffffffffffffffffffffffffffffffffffff163373ffffffffffffffffffffffffffffffffffffffff161415156107dc57600080fd5b3373ffffffffffffffffffffffffffffffffffffffff166108fc3073ffffffffffffffffffffffffffffffffffffffff16319081150290604051600060405180830381858888f19350505050158015610839573d6000803e3d6000fd5b505050565b816006600082815260200190815260200160002060009054906101000a900473ffffffffffffffffffffffffffffffffffffffff1673ffffffffffffffffffffffffffffffffffffffff163373ffffffffffffffffffffffffffffffffffffffff161415156108ac57600080fd5b60006005848154811015156108bd57fe5b906000526020600020906003020190506001151581600201600f9054906101000a900460ff1615151415156108f157600080fd5b600060646108fe8561142f565b81151561090757fe5b069050600b548111151561096a5761093f60018360020160009054906101000a900461ffff1661ffff1661146f90919063ffffffff16565b61ffff168260020160066101000a81548163ffffffff021916908363ffffffff1602179055506109e1565b610998600183600201600a9054906101000a900463ffffffff1663ffffffff1661140590919063ffffffff16565b82600201600a6101000a81548163ffffffff021916908363ffffffff160217905550600082600201600f6101000a81548160ff0219169083151502179055506109e082611495565b5b5050505050565b6109f0610b5f565b15156109fb57600080fd5b600073ffffffffffffffffffffffffffffffffffffffff166000809054906101000a900473ffffffffffffffffffffffffffffffffffffffff1673ffffffffffffffffffffffffffffffffffffffff167f8be0079c531659141344cd1fd0a4f28419497f9722a3daafe3b4186f6b6457e060405160405180910390a360008060006101000a81548173ffffffffffffffffffffffffffffffffffffffff021916908373ffffffffffffffffffffffffffffffffffffffff160217905550565b60008060009054906101000a900473ffffffffffffffffffffffffffffffffffffffff16905090565b6000600760003373ffffffffffffffffffffffffffffffffffffffff1673ffffffffffffffffffffffffffffffffffffffff16815260200190815260200160002054141515610b3157600080fd5b6000610b3e6004546114bf565b9050606481811515610b4c57fe5b0681039050610b5b82826114e3565b5050565b60008060009054906101000a900473ffffffffffffffffffffffffffffffffffffffff1673ffffffffffffffffffffffffffffffffffffffff163373ffffffffffffffffffffffffffffffffffffffff1614905090565b606080600760008473ffffffffffffffffffffffffffffffffffffffff1673ffffffffffffffffffffffffffffffffffffffff16815260200190815260200160002054604051908082528060200260200182016040528015610c275781602001602082028038833980820191505090505b509050600080905060008090505b600580549050811015610cdc578473ffffffffffffffffffffffffffffffffffffffff166006600083815260200190815260200160002060009054906101000a900473ffffffffffffffffffffffffffffffffffffffff1673ffffffffffffffffffffffffffffffffffffffff161415610ccf57808383815181101515610cb857fe5b906020019060200201818152505081806001019250505b8080600101915050610c35565b508192505050919050565b600581815481101515610cf657fe5b9060005260206000209060030201600091509050806000018054600181600116156101000203166002900480601f016020809104026020016040519081016040528092919081815260200182805460018160011615610100020316600290048015610da25780601f10610d7757610100808354040283529160200191610da2565b820191906000526020600020905b815481529060010190602001808311610d8557829003601f168201915b5050505050908060010154908060020160009054906101000a900461ffff16908060020160029054906101000a900463ffffffff16908060020160069054906101000a900463ffffffff169080600201600a9054906101000a900463ffffffff169080600201600e9054906101000a900460ff169080600201600f9054906101000a900460ff16905088565b826006600082815260200190815260200160002060009054906101000a900473ffffffffffffffffffffffffffffffffffffffff1673ffffffffffffffffffffffffffffffffffffffff163373ffffffffffffffffffffffffffffffffffffffff16141515610e9c57600080fd5b6000600585815481101515610ead57fe5b906000526020600020906003020190506000600585815481101515610ece57fe5b906000526020600020906003020190506001151582600201600e9054906101000a900460ff161515141515610f0257600080fd5b60006064610f0f8661142f565b811515610f1857fe5b069050600a5481111515610f40576001151583600201600f9054906101000a90505050610fff565b610f6e600184600201600a9054906101000a900463ffffffff1663ffffffff1661140590919063ffffffff16565b83600201600a6101000a81548163ffffffff021916908363ffffffff160217905550600083600201600e6101000a81548160ff021916908315150217905550610fd760018360020160009054906101000a900461ffff1661ffff1661146f90919063ffffffff16565b8260020160006101000a81548161ffff021916908361ffff160217905550610ffe83611495565b5b50505050505050565b611010610b5f565b151561101b57600080fd5b8060088190555050565b826006600082815260200190815260200160002060009054906101000a900473ffffffffffffffffffffffffffffffffffffffff1673ffffffffffffffffffffffffffffffffffffffff163373ffffffffffffffffffffffffffffffffffffffff1614151561109357600080fd5b60006005858154811015156110a457fe5b9060005260206000209060030201905060006005858154811015156110c557fe5b90600052602060002090600302019050600063ffffffff168260020160069054906101000a900463ffffffff1663ffffffff1611151561110457600080fd5b600060646111118661142f565b81151561111a57fe5b069050600c548111151561117d5761115660018460020160069054906101000a900463ffffffff1663ffffffff1661140590919063ffffffff16565b8360020160066101000a81548163ffffffff021916908363ffffffff16021790555061123c565b6111ab600184600201600a9054906101000a900463ffffffff1663ffffffff1661140590919063ffffffff16565b83600201600a6101000a81548163ffffffff021916908363ffffffff160217905550600083600201600e6101000a81548160ff02191690831515021790555061121460018360020160009054906101000a900461ffff1661ffff166117c890919063ffffffff16565b8260020160006101000a81548161ffff021916908361ffff16021790555061123b83611495565b5b50505050505050565b826006600082815260200190815260200160002060009054906101000a900473ffffffffffffffffffffffffffffffffffffffff1673ffffffffffffffffffffffffffffffffffffffff163373ffffffffffffffffffffffffffffffffffffffff161415156112b357600080fd5b60006005858154811015156112c457fe5b9060005260206000209060030201905060006005858154811015156112e557fe5b90600052602060002090600302019050600060646113028661142f565b81151561130b57fe5b0690506009548111151561133b57600183600201600e6101000a81548160ff0219169083151502179055506113dd565b611369600184600201600a9054906101000a900463ffffffff1663ffffffff1661140590919063ffffffff16565b83600201600a6101000a81548163ffffffff021916908363ffffffff1602179055506113b560018360020160009054906101000a900461ffff1661ffff1661146f90919063ffffffff16565b8260020160006101000a81548161ffff021916908361ffff1602179055506113dc83611495565b5b50505050505050565b6113ee610b5f565b15156113f957600080fd5b611402816117e9565b50565b60008082840190508363ffffffff168163ffffffff161015151561142557fe5b8091505092915050565b6000600143034082604051602001808381526020018281526020019250505060405160208183030381529060405280519060200120600190049050919050565b60008082840190508361ffff168161ffff161015151561148b57fe5b8091505092915050565b60035442018160020160026101000a81548163ffffffff021916908363ffffffff16021790555050565b6000806114cb8361142f565b9050600254818115156114da57fe5b06915050919050565b60006001600561010060405190810160405280868152602001858152602001600061ffff168152602001600354420163ffffffff168152602001600063ffffffff168152602001600063ffffffff1681526020016000151581526020016000151581525090806001815401808255809150509060018203906000526020600020906003020160009091929091909150600082015181600001908051906020019061158e9291906118e3565b506020820151816001015560408201518160020160006101000a81548161ffff021916908361ffff16021790555060608201518160020160026101000a81548163ffffffff021916908363ffffffff16021790555060808201518160020160066101000a81548163ffffffff021916908363ffffffff16021790555060a082015181600201600a6101000a81548163ffffffff021916908363ffffffff16021790555060c082015181600201600e6101000a81548160ff02191690831515021790555060e082015181600201600f6101000a81548160ff0219169083151502179055505050039050336006600083815260200190815260200160002060006101000a81548173ffffffffffffffffffffffffffffffffffffffff021916908373ffffffffffffffffffffffffffffffffffffffff160217905550600760003373ffffffffffffffffffffffffffffffffffffffff1673ffffffffffffffffffffffffffffffffffffffff168152602001908152602001600020600081548092919060010191905055507f6a5a3f44c8cd4a79f4c14591e1697a24a0806869bd118a37432415ac2bf11b9b8184846040518084815260200180602001838152602001828103825284818151815260200191508051906020019080838360005b8381101561178757808201518184015260208101905061176c565b50505050905090810190601f1680156117b45780820380516001836020036101000a031916815260200191505b5094505050505060405180910390a1505050565b60008261ffff168261ffff16111515156117de57fe5b818303905092915050565b600073ffffffffffffffffffffffffffffffffffffffff168173ffffffffffffffffffffffffffffffffffffffff161415151561182557600080fd5b8073ffffffffffffffffffffffffffffffffffffffff166000809054906101000a900473ffffffffffffffffffffffffffffffffffffffff1673ffffffffffffffffffffffffffffffffffffffff167f8be0079c531659141344cd1fd0a4f28419497f9722a3daafe3b4186f6b6457e060405160405180910390a3806000806101000a81548173ffffffffffffffffffffffffffffffffffffffff021916908373ffffffffffffffffffffffffffffffffffffffff16021790555050565b828054600181600116156101000203166002900490600052602060002090601f016020900481019282601f1061192457805160ff1916838001178555611952565b82800160010185558215611952579182015b82811115611951578251825591602001919060010190611936565b5b50905061195f9190611963565b5090565b61198591905b80821115611981576000816000905550600101611969565b5090565b9056fea165627a7a72305820992e4d951a6ea9b76cedd47328214646258327e930b9aee32cc88a5bfd78c6050029",
  "source": "pragma solidity >=0.5.0 <0.6.0;\r\nimport \"./helper.sol\";\r\n\r\ncontract Abilities is Helper {\r\n    uint dateProbability = 50;\r\n    uint bringHomeProbability = 40;\r\n    uint traumatizeProbability = 20;\r\n    uint donScalpProbability = 20;\r\n\r\n    function _date(uint _ancestorId, uint _crush, uint _luckyNumber) external onlyOwnerOf(_ancestorId) {\r\n        Ancestor storage myAncestor = ancestors[_ancestorId];\r\n        Ancestor storage crush = ancestors[_crush];\r\n        uint rand = _randomGenerator(_luckyNumber) % 100;\r\n        if (rand <= dateProbability) {\r\n            myAncestor.isTaken = true;\r\n        } else {\r\n            myAncestor.rejections = myAncestor.rejections.add(1);\r\n            crush.scalps = crush.scalps.add(1);\r\n            _triggerCooldown(myAncestor);\r\n        }\r\n    }\r\n\r\n    function _bringHome(uint _ancestorId, uint _crush, uint _luckyNumber) external onlyOwnerOf(_ancestorId) {\r\n        Ancestor storage myAncestor = ancestors[_ancestorId];\r\n        Ancestor storage crush = ancestors[_crush];\r\n        require(myAncestor.isTaken == true);       \r\n        uint rand =  _randomGenerator(_luckyNumber) % 100;\r\n        if (rand <= bringHomeProbability) {\r\n            myAncestor.canCrawl == true;\r\n        } else {\r\n            myAncestor.rejections = myAncestor.rejections.add(1);\r\n            myAncestor.isTaken = false;\r\n            crush.scalps = crush.scalps.add(1);\r\n            _triggerCooldown(myAncestor);\r\n        }\r\n    }\r\n    \r\n    function donScalp(uint _ancestorId, uint _luckyNumber) external onlyOwnerOf(_ancestorId) {\r\n        Ancestor storage myAncestor = ancestors[_ancestorId];\r\n        require(myAncestor.canCrawl == true);\r\n        uint rand = _randomGenerator(_luckyNumber) % 100;\r\n        if (rand <= traumatizeProbability) {\r\n            myAncestor.traumaCount = myAncestor.scalps.add(1);\r\n        } else {\r\n            myAncestor.rejections = myAncestor.rejections.add(1);\r\n            myAncestor.canCrawl = false;\r\n            _triggerCooldown(myAncestor);\r\n        }\r\n    }\r\n\r\n    function _traumatize(uint _ancestorId, uint _crush, uint _luckyNumber) external onlyOwnerOf(_ancestorId) {\r\n        Ancestor storage myAncestor = ancestors[_ancestorId];\r\n        Ancestor storage crush = ancestors[_crush];\r\n        require(myAncestor.traumaCount > uint32(0));\r\n        uint rand = _randomGenerator(_luckyNumber) % 100;\r\n        if (rand <= donScalpProbability) {\r\n            myAncestor.traumaCount = myAncestor.traumaCount.add(1);\r\n            } else {\r\n            myAncestor.rejections = myAncestor.rejections.add(1);\r\n            myAncestor.isTaken = false;\r\n            crush.scalps = crush.scalps.sub(1);\r\n            _triggerCooldown(myAncestor);\r\n        }\r\n\r\n    }\r\n\r\n}",
  "sourcePath": "C:/Users/allan/Desktop/portfolio/Ancestor/contracts/abilities.sol",
  "compiler": {
    "name": "solc",
    "version": "0.5.1+commit.c8a2cb62.Emscripten.clang"
  },
  "schemaVersion": "3.0.15",
  "updatedAt": "2020-12-23T22:09:23.610Z",
  "devdoc": {
    "methods": {
      "isOwner()": {
        "return": "true if `msg.sender` is the owner of the contract.\r"
      },
      "owner()": {
        "return": "the address of the owner.\r"
      },
      "renounceOwnership()": {
        "details": "Allows the current owner to relinquish control of the contract.\r"
      },
      "transferOwnership(address)": {
        "details": "Allows the current owner to transfer control of the contract to a newOwner.\r",
        "params": {
          "newOwner": "The address to transfer ownership to.\r"
        }
      }
    }
  },
  "userdoc": {
    "methods": {
      "renounceOwnership()": {
        "notice": "Renouncing to ownership will leave the contract without an owner.\r It will not be possible to call the functions with the `onlyOwner`\r modifier anymore.\r"
      }
    }
  }
}