{
  "contractName": "Abilities",
  "abi": [
    {
      "constant": false,
      "inputs": [
        {
          "name": "_ancestorId",
          "type": "uint256"
        }
      ],
      "name": "levelUp",
      "outputs": [],
      "payable": true,
      "stateMutability": "payable",
      "type": "function"
    },
    {
      "constant": true,
      "inputs": [
        {
          "name": "",
          "type": "uint256"
        }
      ],
      "name": "ancestorToOwner",
      "outputs": [
        {
          "name": "",
          "type": "address"
        }
      ],
      "payable": false,
      "stateMutability": "view",
      "type": "function"
    },
    {
      "constant": false,
      "inputs": [
        {
          "name": "_ancestorId",
          "type": "uint256"
        }
      ],
      "name": "withdraw",
      "outputs": [],
      "payable": false,
      "stateMutability": "nonpayable",
      "type": "function"
    },
    {
      "constant": false,
      "inputs": [],
      "name": "renounceOwnership",
      "outputs": [],
      "payable": false,
      "stateMutability": "nonpayable",
      "type": "function"
    },
    {
      "constant": true,
      "inputs": [],
      "name": "owner",
      "outputs": [
        {
          "name": "",
          "type": "address"
        }
      ],
      "payable": false,
      "stateMutability": "view",
      "type": "function"
    },
    {
      "constant": false,
      "inputs": [
        {
          "name": "_name",
          "type": "string"
        }
      ],
      "name": "_makeRandomAncestor",
      "outputs": [],
      "payable": false,
      "stateMutability": "nonpayable",
      "type": "function"
    },
    {
      "constant": true,
      "inputs": [],
      "name": "isOwner",
      "outputs": [
        {
          "name": "",
          "type": "bool"
        }
      ],
      "payable": false,
      "stateMutability": "view",
      "type": "function"
    },
    {
      "constant": true,
      "inputs": [
        {
          "name": "_owner",
          "type": "address"
        }
      ],
      "name": "getAncestorsByOwner",
      "outputs": [
        {
          "name": "",
          "type": "uint256[]"
        }
      ],
      "payable": false,
      "stateMutability": "view",
      "type": "function"
    },
    {
      "constant": true,
      "inputs": [
        {
          "name": "",
          "type": "uint256"
        }
      ],
      "name": "ancestors",
      "outputs": [
        {
          "name": "name",
          "type": "string"
        },
        {
          "name": "dna",
          "type": "uint256"
        },
        {
          "name": "scalps",
          "type": "uint16"
        },
        {
          "name": "readyTime",
          "type": "uint32"
        },
        {
          "name": "traumaCount",
          "type": "uint32"
        },
        {
          "name": "rejections",
          "type": "uint32"
        },
        {
          "name": "isTaken",
          "type": "bool"
        },
        {
          "name": "canCrawl",
          "type": "bool"
        }
      ],
      "payable": false,
      "stateMutability": "view",
      "type": "function"
    },
    {
      "constant": false,
      "inputs": [
        {
          "name": "_fee",
          "type": "uint256"
        }
      ],
      "name": "setLevelUpFee",
      "outputs": [],
      "payable": false,
      "stateMutability": "nonpayable",
      "type": "function"
    },
    {
      "constant": true,
      "inputs": [
        {
          "name": "",
          "type": "address"
        }
      ],
      "name": "ancestorCount",
      "outputs": [
        {
          "name": "",
          "type": "uint256"
        }
      ],
      "payable": false,
      "stateMutability": "view",
      "type": "function"
    },
    {
      "constant": false,
      "inputs": [
        {
          "name": "newOwner",
          "type": "address"
        }
      ],
      "name": "transferOwnership",
      "outputs": [],
      "payable": false,
      "stateMutability": "nonpayable",
      "type": "function"
    },
    {
      "anonymous": false,
      "inputs": [
        {
          "indexed": false,
          "name": "id",
          "type": "uint256"
        },
        {
          "indexed": false,
          "name": "name",
          "type": "string"
        },
        {
          "indexed": false,
          "name": "dna",
          "type": "uint256"
        }
      ],
      "name": "NewAncestor",
      "type": "event"
    },
    {
      "anonymous": false,
      "inputs": [
        {
          "indexed": true,
          "name": "previousOwner",
          "type": "address"
        },
        {
          "indexed": true,
          "name": "newOwner",
          "type": "address"
        }
      ],
      "name": "OwnershipTransferred",
      "type": "event"
    },
    {
      "constant": false,
      "inputs": [
        {
          "name": "_ancestorId",
          "type": "uint256"
        },
        {
          "name": "_crush",
          "type": "uint256"
        }
      ],
      "name": "_date",
      "outputs": [],
      "payable": false,
      "stateMutability": "nonpayable",
      "type": "function"
    },
    {
      "constant": false,
      "inputs": [
        {
          "name": "_ancestorId",
          "type": "uint256"
        }
      ],
      "name": "_date",
      "outputs": [],
      "payable": false,
      "stateMutability": "nonpayable",
      "type": "function"
    },
    {
      "constant": false,
      "inputs": [
        {
          "name": "_ancestorId",
          "type": "uint256"
        },
        {
          "name": "_crush",
          "type": "uint256"
        }
      ],
      "name": "_bringHome",
      "outputs": [],
      "payable": false,
      "stateMutability": "nonpayable",
      "type": "function"
    },
    {
      "constant": false,
      "inputs": [
        {
          "name": "_ancestorId",
          "type": "uint256"
        }
      ],
      "name": "_bringHome",
      "outputs": [],
      "payable": false,
      "stateMutability": "nonpayable",
      "type": "function"
    },
    {
      "constant": false,
      "inputs": [
        {
          "name": "_ancestorId",
          "type": "uint256"
        }
      ],
      "name": "donScalp",
      "outputs": [],
      "payable": false,
      "stateMutability": "nonpayable",
      "type": "function"
    },
    {
      "constant": false,
      "inputs": [
        {
          "name": "_ancestorId",
          "type": "uint256"
        },
        {
          "name": "_crush",
          "type": "uint256"
        }
      ],
      "name": "_traumatize",
      "outputs": [],
      "payable": false,
      "stateMutability": "nonpayable",
      "type": "function"
    },
    {
      "constant": false,
      "inputs": [
        {
          "name": "_ancestorId",
          "type": "uint256"
        }
      ],
      "name": "_traumatize",
      "outputs": [],
      "payable": false,
      "stateMutability": "nonpayable",
      "type": "function"
    }
  ],
  "bytecode": "0x60806040526010600155600154600a0a6002556201518060035566038d7ea4c68000600755603260085560286009556014600a556014600b556000600c556032600d556028600e556014600f5560146010556000601155336000806101000a81548173ffffffffffffffffffffffffffffffffffffffff021916908373ffffffffffffffffffffffffffffffffffffffff1602179055506000809054906101000a900473ffffffffffffffffffffffffffffffffffffffff1673ffffffffffffffffffffffffffffffffffffffff16600073ffffffffffffffffffffffffffffffffffffffff167f8be0079c531659141344cd1fd0a4f28419497f9722a3daafe3b4186f6b6457e060405160405180910390a3611fe7806101216000396000f3fe608060405260043610610101576000357c0100000000000000000000000000000000000000000000000000000000900480630ce90ec21461010657806317354967146101345780632e1a7d4d146101af5780632e2a92ee146101ea578063465827321461022f5780634c335b2f1461026a578063715018a6146102af5780637acfd03e146102c65780637ef9d5b01461030b578063801f9a18146103465780638da5cb5b146103815780638daa76f7146103d85780638f32d59b146104a05780639b127d1a146104cf578063a0680aae14610575578063ccf670f81461068e578063d1a6497c146106c9578063f2fde38b1461072e578063f3db17fb1461077f575b600080fd5b6101326004803603602081101561011c57600080fd5b81019080803590602001909291905050506107ba565b005b34801561014057600080fd5b5061016d6004803603602081101561015757600080fd5b8101908080359060200190929190505050610855565b604051808273ffffffffffffffffffffffffffffffffffffffff1673ffffffffffffffffffffffffffffffffffffffff16815260200191505060405180910390f35b3480156101bb57600080fd5b506101e8600480360360208110156101d257600080fd5b8101908080359060200190929190505050610888565b005b3480156101f657600080fd5b5061022d6004803603604081101561020d57600080fd5b810190808035906020019092919080359060200190929190505050610958565b005b34801561023b57600080fd5b506102686004803603602081101561025257600080fd5b8101908080359060200190929190505050610b26565b005b34801561027657600080fd5b506102ad6004803603604081101561028d57600080fd5b810190808035906020019092919080359060200190929190505050610c6c565b005b3480156102bb57600080fd5b506102c4610e80565b005b3480156102d257600080fd5b50610309600480360360408110156102e957600080fd5b810190808035906020019092919080359060200190929190505050610f52565b005b34801561031757600080fd5b506103446004803603602081101561032e57600080fd5b81019080803590602001909291905050506110e7565b005b34801561035257600080fd5b5061037f6004803603602081101561036957600080fd5b8101908080359060200190929190505050611273565b005b34801561038d57600080fd5b50610396611411565b604051808273ffffffffffffffffffffffffffffffffffffffff1673ffffffffffffffffffffffffffffffffffffffff16815260200191505060405180910390f35b3480156103e457600080fd5b5061049e600480360360208110156103fb57600080fd5b810190808035906020019064010000000081111561041857600080fd5b82018360208201111561042a57600080fd5b8035906020019184600183028401116401000000008311171561044c57600080fd5b91908080601f016020809104026020016040519081016040528093929190818152602001838380828437600081840152601f19601f82011690508083019250505050505050919291929050505061143a565b005b3480156104ac57600080fd5b506104b56114b4565b604051808215151515815260200191505060405180910390f35b3480156104db57600080fd5b5061051e600480360360208110156104f257600080fd5b81019080803573ffffffffffffffffffffffffffffffffffffffff16906020019092919050505061150b565b6040518080602001828103825283818151815260200191508051906020019060200280838360005b83811015610561578082015181840152602081019050610546565b505050509050019250505060405180910390f35b34801561058157600080fd5b506105ae6004803603602081101561059857600080fd5b810190808035906020019092919050505061163c565b60405180806020018981526020018861ffff1661ffff1681526020018763ffffffff1663ffffffff1681526020018663ffffffff1663ffffffff1681526020018563ffffffff1663ffffffff168152602001841515151581526020018315151515815260200182810382528a818151815260200191508051906020019080838360005b8381101561064c578082015181840152602081019050610631565b50505050905090810190601f1680156106795780820380516001836020036101000a031916815260200191505b50995050505050505050505060405180910390f35b34801561069a57600080fd5b506106c7600480360360208110156106b157600080fd5b8101908080359060200190929190505050611783565b005b3480156106d557600080fd5b50610718600480360360208110156106ec57600080fd5b81019080803573ffffffffffffffffffffffffffffffffffffffff1690602001909291905050506117a0565b6040518082815260200191505060405180910390f35b34801561073a57600080fd5b5061077d6004803603602081101561075157600080fd5b81019080803573ffffffffffffffffffffffffffffffffffffffff1690602001909291905050506117b8565b005b34801561078b57600080fd5b506107b8600480360360208110156107a257600080fd5b81019080803590602001909291905050506117d7565b005b600754341415156107ca57600080fd5b61081460016004838154811015156107de57fe5b906000526020600020906003020160020160069054906101000a900463ffffffff1663ffffffff1661190190919063ffffffff16565b60048281548110151561082357fe5b906000526020600020906003020160020160066101000a81548163ffffffff021916908363ffffffff16021790555050565b60056020528060005260406000206000915054906101000a900473ffffffffffffffffffffffffffffffffffffffff1681565b806005600082815260200190815260200160002060009054906101000a900473ffffffffffffffffffffffffffffffffffffffff1673ffffffffffffffffffffffffffffffffffffffff163373ffffffffffffffffffffffffffffffffffffffff161415156108f657600080fd5b3373ffffffffffffffffffffffffffffffffffffffff166108fc3073ffffffffffffffffffffffffffffffffffffffff16319081150290604051600060405180830381858888f19350505050158015610953573d6000803e3d6000fd5b505050565b816005600082815260200190815260200160002060009054906101000a900473ffffffffffffffffffffffffffffffffffffffff1673ffffffffffffffffffffffffffffffffffffffff163373ffffffffffffffffffffffffffffffffffffffff161415156109c657600080fd5b60006004848154811015156109d757fe5b9060005260206000209060030201905060006004848154811015156109f857fe5b906000526020600020906003020190506001151582600201600e9054906101000a900460ff161515141515610a2c57600080fd5b6000610a38606461192b565b9050600e5481111515610a5f576001151583600201600f9054906101000a90505050610b1e565b610a8d600184600201600a9054906101000a900463ffffffff1663ffffffff1661190190919063ffffffff16565b83600201600a6101000a81548163ffffffff021916908363ffffffff160217905550600083600201600e6101000a81548160ff021916908315150217905550610af660018360020160009054906101000a900461ffff1661ffff166119ce90919063ffffffff16565b8260020160006101000a81548161ffff021916908361ffff160217905550610b1d836119f4565b5b505050505050565b806005600082815260200190815260200160002060009054906101000a900473ffffffffffffffffffffffffffffffffffffffff1673ffffffffffffffffffffffffffffffffffffffff163373ffffffffffffffffffffffffffffffffffffffff16141515610b9457600080fd5b6000600483815481101515610ba557fe5b906000526020600020906003020190506001151581600201600e9054906101000a900460ff161515141515610bd957600080fd5b6000610be5606461192b565b905060095481111515610c0c576001151582600201600f9054906101000a90505050610c66565b610c3a600183600201600a9054906101000a900463ffffffff1663ffffffff1661190190919063ffffffff16565b82600201600a6101000a81548163ffffffff021916908363ffffffff160217905550610c65826119f4565b5b50505050565b816005600082815260200190815260200160002060009054906101000a900473ffffffffffffffffffffffffffffffffffffffff1673ffffffffffffffffffffffffffffffffffffffff163373ffffffffffffffffffffffffffffffffffffffff16141515610cda57600080fd5b6000600484815481101515610ceb57fe5b906000526020600020906003020190506000600484815481101515610d0c57fe5b90600052602060002090600302019050600063ffffffff168260020160069054906101000a900463ffffffff1663ffffffff16111515610d4b57600080fd5b6000610d57606461192b565b905060105481111515610db957610d9260018460020160069054906101000a900463ffffffff1663ffffffff1661190190919063ffffffff16565b8360020160066101000a81548163ffffffff021916908363ffffffff160217905550610e78565b610de7600184600201600a9054906101000a900463ffffffff1663ffffffff1661190190919063ffffffff16565b83600201600a6101000a81548163ffffffff021916908363ffffffff160217905550600083600201600e6101000a81548160ff021916908315150217905550610e5060018360020160009054906101000a900461ffff1661ffff16611a1e90919063ffffffff16565b8260020160006101000a81548161ffff021916908361ffff160217905550610e77836119f4565b5b505050505050565b610e886114b4565b1515610e9357600080fd5b600073ffffffffffffffffffffffffffffffffffffffff166000809054906101000a900473ffffffffffffffffffffffffffffffffffffffff1673ffffffffffffffffffffffffffffffffffffffff167f8be0079c531659141344cd1fd0a4f28419497f9722a3daafe3b4186f6b6457e060405160405180910390a360008060006101000a81548173ffffffffffffffffffffffffffffffffffffffff021916908373ffffffffffffffffffffffffffffffffffffffff160217905550565b816005600082815260200190815260200160002060009054906101000a900473ffffffffffffffffffffffffffffffffffffffff1673ffffffffffffffffffffffffffffffffffffffff163373ffffffffffffffffffffffffffffffffffffffff16141515610fc057600080fd5b6000600484815481101515610fd157fe5b906000526020600020906003020190506000600484815481101515610ff257fe5b90600052602060002090600302019050600061100e606461192b565b9050600d548111151561103d57600183600201600e6101000a81548160ff0219169083151502179055506110df565b61106b600184600201600a9054906101000a900463ffffffff1663ffffffff1661190190919063ffffffff16565b83600201600a6101000a81548163ffffffff021916908363ffffffff1602179055506110b760018360020160009054906101000a900461ffff1661ffff166119ce90919063ffffffff16565b8260020160006101000a81548161ffff021916908361ffff1602179055506110de836119f4565b5b505050505050565b806005600082815260200190815260200160002060009054906101000a900473ffffffffffffffffffffffffffffffffffffffff1673ffffffffffffffffffffffffffffffffffffffff163373ffffffffffffffffffffffffffffffffffffffff1614151561115557600080fd5b600060048381548110151561116657fe5b90600052602060002090600302019050600063ffffffff168160020160069054906101000a900463ffffffff1663ffffffff161115156111a557600080fd5b60006111b1606461192b565b9050600b5481111515611213576111ec60018360020160069054906101000a900463ffffffff1663ffffffff1661190190919063ffffffff16565b8260020160066101000a81548163ffffffff021916908363ffffffff16021790555061126d565b611241600183600201600a9054906101000a900463ffffffff1663ffffffff1661190190919063ffffffff16565b82600201600a6101000a81548163ffffffff021916908363ffffffff16021790555061126c826119f4565b5b50505050565b806005600082815260200190815260200160002060009054906101000a900473ffffffffffffffffffffffffffffffffffffffff1673ffffffffffffffffffffffffffffffffffffffff163373ffffffffffffffffffffffffffffffffffffffff161415156112e157600080fd5b60006004838154811015156112f257fe5b906000526020600020906003020190506001151581600201600f9054906101000a900460ff16151514151561132657600080fd5b6000611332606461192b565b9050600f54811115156113945761136960018360020160009054906101000a900461ffff1661ffff166119ce90919063ffffffff16565b61ffff168260020160066101000a81548163ffffffff021916908363ffffffff16021790555061140b565b6113c2600183600201600a9054906101000a900463ffffffff1663ffffffff1661190190919063ffffffff16565b82600201600a6101000a81548163ffffffff021916908363ffffffff160217905550600082600201600f6101000a81548160ff02191690831515021790555061140a826119f4565b5b50505050565b60008060009054906101000a900473ffffffffffffffffffffffffffffffffffffffff16905090565b6000600660003373ffffffffffffffffffffffffffffffffffffffff1673ffffffffffffffffffffffffffffffffffffffff1681526020019081526020016000205414151561148857600080fd5b600061149382611a3f565b90506064818115156114a157fe5b06810390506114b08282611ad2565b5050565b60008060009054906101000a900473ffffffffffffffffffffffffffffffffffffffff1673ffffffffffffffffffffffffffffffffffffffff163373ffffffffffffffffffffffffffffffffffffffff1614905090565b606080600660008473ffffffffffffffffffffffffffffffffffffffff1673ffffffffffffffffffffffffffffffffffffffff1681526020019081526020016000205460405190808252806020026020018201604052801561157c5781602001602082028038833980820191505090505b509050600080905060008090505b600480549050811015611631578473ffffffffffffffffffffffffffffffffffffffff166005600083815260200190815260200160002060009054906101000a900473ffffffffffffffffffffffffffffffffffffffff1673ffffffffffffffffffffffffffffffffffffffff1614156116245780838381518110151561160d57fe5b906020019060200201818152505081806001019250505b808060010191505061158a565b508192505050919050565b60048181548110151561164b57fe5b9060005260206000209060030201600091509050806000018054600181600116156101000203166002900480601f0160208091040260200160405190810160405280929190818152602001828054600181600116156101000203166002900480156116f75780601f106116cc576101008083540402835291602001916116f7565b820191906000526020600020905b8154815290600101906020018083116116da57829003601f168201915b5050505050908060010154908060020160009054906101000a900461ffff16908060020160029054906101000a900463ffffffff16908060020160069054906101000a900463ffffffff169080600201600a9054906101000a900463ffffffff169080600201600e9054906101000a900460ff169080600201600f9054906101000a900460ff16905088565b61178b6114b4565b151561179657600080fd5b8060078190555050565b60066020528060005260406000206000915090505481565b6117c06114b4565b15156117cb57600080fd5b6117d481611dfe565b50565b806005600082815260200190815260200160002060009054906101000a900473ffffffffffffffffffffffffffffffffffffffff1673ffffffffffffffffffffffffffffffffffffffff163373ffffffffffffffffffffffffffffffffffffffff1614151561184557600080fd5b600060048381548110151561185657fe5b906000526020600020906003020190506000611872606461192b565b9050600854811115156118a157600182600201600e6101000a81548160ff0219169083151502179055506118fb565b6118cf600183600201600a9054906101000a900463ffffffff1663ffffffff1661190190919063ffffffff16565b82600201600a6101000a81548163ffffffff021916908363ffffffff1602179055506118fa826119f4565b5b50505050565b60008082840190508363ffffffff168163ffffffff161015151561192157fe5b8091505092915050565b60006011600081548092919060010191905055601181905550814233601154604051602001808481526020018373ffffffffffffffffffffffffffffffffffffffff1673ffffffffffffffffffffffffffffffffffffffff166c01000000000000000000000000028152601401828152602001935050505060405160208183030381529060405280519060200120600190048115156119c657fe5b069050919050565b60008082840190508361ffff168161ffff16101515156119ea57fe5b8091505092915050565b60035442018160020160026101000a81548163ffffffff021916908363ffffffff16021790555050565b60008261ffff168261ffff1611151515611a3457fe5b818303905092915050565b600080826040516020018082805190602001908083835b602083101515611a7b5780518252602082019150602081019050602083039250611a56565b6001836020036101000a0380198251168184511680821785525050505050509050019150506040516020818303038152906040528051906020012060019004905060025481811515611ac957fe5b06915050919050565b60006001600461010060405190810160405280868152602001858152602001600061ffff168152602001600354420163ffffffff168152602001600063ffffffff168152602001600063ffffffff16815260200160001515815260200160001515815250908060018154018082558091505090600182039060005260206000209060030201600090919290919091506000820151816000019080519060200190611b7d929190611f16565b506020820151816001015560408201518160020160006101000a81548161ffff021916908361ffff16021790555060608201518160020160026101000a81548163ffffffff021916908363ffffffff16021790555060808201518160020160066101000a81548163ffffffff021916908363ffffffff16021790555060a082015181600201600a6101000a81548163ffffffff021916908363ffffffff16021790555060c082015181600201600e6101000a81548160ff02191690831515021790555060e082015181600201600f6101000a81548160ff0219169083151502179055505050039050336005600083815260200190815260200160002060006101000a81548173ffffffffffffffffffffffffffffffffffffffff021916908373ffffffffffffffffffffffffffffffffffffffff160217905550611d0a6001600660003373ffffffffffffffffffffffffffffffffffffffff1673ffffffffffffffffffffffffffffffffffffffff16815260200190815260200160002054611ef890919063ffffffff16565b600660003373ffffffffffffffffffffffffffffffffffffffff1673ffffffffffffffffffffffffffffffffffffffff168152602001908152602001600020819055507f6a5a3f44c8cd4a79f4c14591e1697a24a0806869bd118a37432415ac2bf11b9b8184846040518084815260200180602001838152602001828103825284818151815260200191508051906020019080838360005b83811015611dbd578082015181840152602081019050611da2565b50505050905090810190601f168015611dea5780820380516001836020036101000a031916815260200191505b5094505050505060405180910390a1505050565b600073ffffffffffffffffffffffffffffffffffffffff168173ffffffffffffffffffffffffffffffffffffffff1614151515611e3a57600080fd5b8073ffffffffffffffffffffffffffffffffffffffff166000809054906101000a900473ffffffffffffffffffffffffffffffffffffffff1673ffffffffffffffffffffffffffffffffffffffff167f8be0079c531659141344cd1fd0a4f28419497f9722a3daafe3b4186f6b6457e060405160405180910390a3806000806101000a81548173ffffffffffffffffffffffffffffffffffffffff021916908373ffffffffffffffffffffffffffffffffffffffff16021790555050565b6000808284019050838110151515611f0c57fe5b8091505092915050565b828054600181600116156101000203166002900490600052602060002090601f016020900481019282601f10611f5757805160ff1916838001178555611f85565b82800160010185558215611f85579182015b82811115611f84578251825591602001919060010190611f69565b5b509050611f929190611f96565b5090565b611fb891905b80821115611fb4576000816000905550600101611f9c565b5090565b9056fea165627a7a72305820d9078114c7188791a40141072e8698939c39586edf9e8b36f579eab77d39bab60029",
  "source": "pragma solidity >=0.5.0 <0.6.0;\r\nimport \"./helper.sol\";\r\n\r\ncontract Abilities is Helper {\r\n    uint dateProbability = 50;\r\n    uint bringHomeProbability = 40;\r\n    uint traumatizeProbability = 20;\r\n    uint donScalpProbability = 20;\r\n    uint randNonce = 0;\r\n\r\n   function randMod(uint _modulus) internal returns(uint) {\r\n    randNonce = randNonce++;\r\n    return uint(keccak256(abi.encodePacked(now, msg.sender, randNonce))) % _modulus;\r\n  }\r\n\r\n    function _date(uint _ancestorId, uint _crush) external onlyOwnerOf(_ancestorId) {\r\n        Ancestor storage myAncestor = ancestors[_ancestorId];\r\n        Ancestor storage crush = ancestors[_crush];\r\n        uint rand = randMod(100);\r\n        if (rand <= dateProbability) {\r\n            myAncestor.isTaken = true;\r\n        } else {\r\n            myAncestor.rejections = myAncestor.rejections.add(1);\r\n            crush.scalps = crush.scalps.add(1);\r\n            _triggerCooldown(myAncestor);\r\n        }\r\n    }\r\n\r\n    function _bringHome(uint _ancestorId, uint _crush) external onlyOwnerOf(_ancestorId) {\r\n        Ancestor storage myAncestor = ancestors[_ancestorId];\r\n        Ancestor storage crush = ancestors[_crush];\r\n        require(myAncestor.isTaken == true);       \r\n        uint rand = randMod(100);\r\n        if (rand <= bringHomeProbability) {\r\n            myAncestor.canCrawl == true;\r\n        } else {\r\n            myAncestor.rejections = myAncestor.rejections.add(1);\r\n            myAncestor.isTaken = false;\r\n            crush.scalps = crush.scalps.add(1);\r\n            _triggerCooldown(myAncestor);\r\n        }\r\n    }\r\n    \r\n    function donScalp(uint _ancestorId) external onlyOwnerOf(_ancestorId) {\r\n        Ancestor storage myAncestor = ancestors[_ancestorId];\r\n        require(myAncestor.canCrawl == true);\r\n        uint rand = randMod(100);\r\n        if (rand <= traumatizeProbability) {\r\n            myAncestor.traumaCount = myAncestor.scalps.add(1);\r\n        } else {\r\n            myAncestor.rejections = myAncestor.rejections.add(1);\r\n            myAncestor.canCrawl = false;\r\n            _triggerCooldown(myAncestor);\r\n        }\r\n    }\r\n\r\n    function _traumatize(uint _ancestorId, uint _crush) external onlyOwnerOf(_ancestorId) {\r\n        Ancestor storage myAncestor = ancestors[_ancestorId];\r\n        Ancestor storage crush = ancestors[_crush];\r\n        require(myAncestor.traumaCount > uint32(0));\r\n        uint rand = randMod(100);\r\n        if (rand <= donScalpProbability) {\r\n            myAncestor.traumaCount = myAncestor.traumaCount.add(1);\r\n            } else {\r\n            myAncestor.rejections = myAncestor.rejections.add(1);\r\n            myAncestor.isTaken = false;\r\n            crush.scalps = crush.scalps.sub(1);\r\n            _triggerCooldown(myAncestor);\r\n        }\r\n\r\n    }\r\n}",
  "sourcePath": "C:/Users/allan/Desktop/portfolio/Ancestor/contracts/abilities.sol",
  "compiler": {
    "name": "solc",
    "version": "0.5.1+commit.c8a2cb62.Emscripten.clang"
  },
  "schemaVersion": "3.0.15",
  "updatedAt": "2020-11-18T18:53:25.263Z",
  "devdoc": {
    "methods": {
      "isOwner()": {
        "return": "true if `msg.sender` is the owner of the contract.\r"
      },
      "owner()": {
        "return": "the address of the owner.\r"
      },
      "renounceOwnership()": {
        "details": "Allows the current owner to relinquish control of the contract.\r"
      },
      "transferOwnership(address)": {
        "details": "Allows the current owner to transfer control of the contract to a newOwner.\r",
        "params": {
          "newOwner": "The address to transfer ownership to.\r"
        }
      }
    }
  },
  "userdoc": {
    "methods": {
      "renounceOwnership()": {
        "notice": "Renouncing to ownership will leave the contract without an owner.\r It will not be possible to call the functions with the `onlyOwner`\r modifier anymore.\r"
      }
    }
  }
}