{
  "contractName": "Abilities",
  "abi": [
    {
      "constant": false,
      "inputs": [
        {
          "name": "_ancestorId",
          "type": "uint256"
        }
      ],
      "name": "levelUp",
      "outputs": [],
      "payable": true,
      "stateMutability": "payable",
      "type": "function"
    },
    {
      "constant": true,
      "inputs": [
        {
          "name": "",
          "type": "uint256"
        }
      ],
      "name": "ancestorToOwner",
      "outputs": [
        {
          "name": "",
          "type": "address"
        }
      ],
      "payable": false,
      "stateMutability": "view",
      "type": "function"
    },
    {
      "constant": false,
      "inputs": [
        {
          "name": "_ancestorId",
          "type": "uint256"
        }
      ],
      "name": "withdraw",
      "outputs": [],
      "payable": false,
      "stateMutability": "nonpayable",
      "type": "function"
    },
    {
      "constant": false,
      "inputs": [
        {
          "name": "_name",
          "type": "string"
        },
        {
          "name": "seed",
          "type": "uint256"
        }
      ],
      "name": "_makeRandomAncestor",
      "outputs": [],
      "payable": false,
      "stateMutability": "nonpayable",
      "type": "function"
    },
    {
      "constant": false,
      "inputs": [],
      "name": "renounceOwnership",
      "outputs": [],
      "payable": false,
      "stateMutability": "nonpayable",
      "type": "function"
    },
    {
      "constant": true,
      "inputs": [],
      "name": "owner",
      "outputs": [
        {
          "name": "",
          "type": "address"
        }
      ],
      "payable": false,
      "stateMutability": "view",
      "type": "function"
    },
    {
      "constant": true,
      "inputs": [],
      "name": "isOwner",
      "outputs": [
        {
          "name": "",
          "type": "bool"
        }
      ],
      "payable": false,
      "stateMutability": "view",
      "type": "function"
    },
    {
      "constant": true,
      "inputs": [
        {
          "name": "_owner",
          "type": "address"
        }
      ],
      "name": "getAncestorsByOwner",
      "outputs": [
        {
          "name": "",
          "type": "uint256[]"
        }
      ],
      "payable": false,
      "stateMutability": "view",
      "type": "function"
    },
    {
      "constant": true,
      "inputs": [
        {
          "name": "",
          "type": "uint256"
        }
      ],
      "name": "ancestors",
      "outputs": [
        {
          "name": "name",
          "type": "string"
        },
        {
          "name": "dna",
          "type": "uint256"
        },
        {
          "name": "scalps",
          "type": "uint16"
        },
        {
          "name": "readyTime",
          "type": "uint32"
        },
        {
          "name": "traumaCount",
          "type": "uint32"
        },
        {
          "name": "rejections",
          "type": "uint32"
        },
        {
          "name": "isTaken",
          "type": "bool"
        },
        {
          "name": "canCrawl",
          "type": "bool"
        }
      ],
      "payable": false,
      "stateMutability": "view",
      "type": "function"
    },
    {
      "constant": false,
      "inputs": [
        {
          "name": "_fee",
          "type": "uint256"
        }
      ],
      "name": "setLevelUpFee",
      "outputs": [],
      "payable": false,
      "stateMutability": "nonpayable",
      "type": "function"
    },
    {
      "constant": true,
      "inputs": [
        {
          "name": "",
          "type": "address"
        }
      ],
      "name": "ancestorCount",
      "outputs": [
        {
          "name": "",
          "type": "uint256"
        }
      ],
      "payable": false,
      "stateMutability": "view",
      "type": "function"
    },
    {
      "constant": false,
      "inputs": [
        {
          "name": "newOwner",
          "type": "address"
        }
      ],
      "name": "transferOwnership",
      "outputs": [],
      "payable": false,
      "stateMutability": "nonpayable",
      "type": "function"
    },
    {
      "anonymous": false,
      "inputs": [
        {
          "indexed": false,
          "name": "id",
          "type": "uint256"
        },
        {
          "indexed": false,
          "name": "name",
          "type": "string"
        },
        {
          "indexed": false,
          "name": "dna",
          "type": "uint256"
        }
      ],
      "name": "NewAncestor",
      "type": "event"
    },
    {
      "anonymous": false,
      "inputs": [
        {
          "indexed": true,
          "name": "previousOwner",
          "type": "address"
        },
        {
          "indexed": true,
          "name": "newOwner",
          "type": "address"
        }
      ],
      "name": "OwnershipTransferred",
      "type": "event"
    },
    {
      "constant": false,
      "inputs": [
        {
          "name": "_ancestorId",
          "type": "uint256"
        },
        {
          "name": "_crush",
          "type": "uint256"
        },
        {
          "name": "_luckyNumber",
          "type": "uint256"
        }
      ],
      "name": "_date",
      "outputs": [],
      "payable": false,
      "stateMutability": "nonpayable",
      "type": "function"
    },
    {
      "constant": false,
      "inputs": [
        {
          "name": "_ancestorId",
          "type": "uint256"
        },
        {
          "name": "_crush",
          "type": "uint256"
        },
        {
          "name": "_luckyNumber",
          "type": "uint256"
        }
      ],
      "name": "_bringHome",
      "outputs": [],
      "payable": false,
      "stateMutability": "nonpayable",
      "type": "function"
    },
    {
      "constant": false,
      "inputs": [
        {
          "name": "_ancestorId",
          "type": "uint256"
        },
        {
          "name": "_luckyNumber",
          "type": "uint256"
        }
      ],
      "name": "donScalp",
      "outputs": [],
      "payable": false,
      "stateMutability": "nonpayable",
      "type": "function"
    },
    {
      "constant": false,
      "inputs": [
        {
          "name": "_ancestorId",
          "type": "uint256"
        },
        {
          "name": "_crush",
          "type": "uint256"
        },
        {
          "name": "_luckyNumber",
          "type": "uint256"
        }
      ],
      "name": "_traumatize",
      "outputs": [],
      "payable": false,
      "stateMutability": "nonpayable",
      "type": "function"
    }
  ],
  "bytecode": "0x60806040526010600155600154600a0a6002556201518060035566038d7ea4c68000600755603260085560286009556014600a556014600b55336000806101000a81548173ffffffffffffffffffffffffffffffffffffffff021916908373ffffffffffffffffffffffffffffffffffffffff1602179055506000809054906101000a900473ffffffffffffffffffffffffffffffffffffffff1673ffffffffffffffffffffffffffffffffffffffff16600073ffffffffffffffffffffffffffffffffffffffff167f8be0079c531659141344cd1fd0a4f28419497f9722a3daafe3b4186f6b6457e060405160405180910390a36119f6806101036000396000f3fe6080604052600436106100e0576000357c0100000000000000000000000000000000000000000000000000000000900480630ce90ec2146100e557806317354967146101135780632e1a7d4d1461018e5780633701318f146101c95780633b76f6761461020e578063715018a6146102e05780638da5cb5b146102f75780638f32d59b1461034e5780639b127d1a1461037d578063a0680aae14610423578063c60c3c381461053c578063ccf670f81461058b578063d1a6497c146105c6578063d73572701461062b578063de28f5151461067a578063f2fde38b146106c9575b600080fd5b610111600480360360208110156100fb57600080fd5b810190808035906020019092919050505061071a565b005b34801561011f57600080fd5b5061014c6004803603602081101561013657600080fd5b81019080803590602001909291905050506107b5565b604051808273ffffffffffffffffffffffffffffffffffffffff1673ffffffffffffffffffffffffffffffffffffffff16815260200191505060405180910390f35b34801561019a57600080fd5b506101c7600480360360208110156101b157600080fd5b81019080803590602001909291905050506107e8565b005b3480156101d557600080fd5b5061020c600480360360408110156101ec57600080fd5b8101908080359060200190929190803590602001909291905050506108b8565b005b34801561021a57600080fd5b506102de6004803603604081101561023157600080fd5b810190808035906020019064010000000081111561024e57600080fd5b82018360208201111561026057600080fd5b8035906020019184600183028401116401000000008311171561028257600080fd5b91908080601f016020809104026020016040519081016040528093929190818152602001838380828437600081840152601f19601f82011690508083019250505050505050919291929080359060200190929190505050610a62565b005b3480156102ec57600080fd5b506102f5610add565b005b34801561030357600080fd5b5061030c610baf565b604051808273ffffffffffffffffffffffffffffffffffffffff1673ffffffffffffffffffffffffffffffffffffffff16815260200191505060405180910390f35b34801561035a57600080fd5b50610363610bd8565b604051808215151515815260200191505060405180910390f35b34801561038957600080fd5b506103cc600480360360208110156103a057600080fd5b81019080803573ffffffffffffffffffffffffffffffffffffffff169060200190929190505050610c2f565b6040518080602001828103825283818151815260200191508051906020019060200280838360005b8381101561040f5780820151818401526020810190506103f4565b505050509050019250505060405180910390f35b34801561042f57600080fd5b5061045c6004803603602081101561044657600080fd5b8101908080359060200190929190505050610d60565b60405180806020018981526020018861ffff1661ffff1681526020018763ffffffff1663ffffffff1681526020018663ffffffff1663ffffffff1681526020018563ffffffff1663ffffffff168152602001841515151581526020018315151515815260200182810382528a818151815260200191508051906020019080838360005b838110156104fa5780820151818401526020810190506104df565b50505050905090810190601f1680156105275780820380516001836020036101000a031916815260200191505b50995050505050505050505060405180910390f35b34801561054857600080fd5b506105896004803603606081101561055f57600080fd5b81019080803590602001909291908035906020019092919080359060200190929190505050610ea7565b005b34801561059757600080fd5b506105c4600480360360208110156105ae57600080fd5b8101908080359060200190929190505050611081565b005b3480156105d257600080fd5b50610615600480360360208110156105e957600080fd5b81019080803573ffffffffffffffffffffffffffffffffffffffff16906020019092919050505061109e565b6040518082815260200191505060405180910390f35b34801561063757600080fd5b506106786004803603606081101561064e57600080fd5b810190808035906020019092919080359060200190929190803590602001909291905050506110b6565b005b34801561068657600080fd5b506106c76004803603606081101561069d57600080fd5b810190808035906020019092919080359060200190929190803590602001909291905050506112d6565b005b3480156106d557600080fd5b50610718600480360360208110156106ec57600080fd5b81019080803573ffffffffffffffffffffffffffffffffffffffff169060200190929190505050611477565b005b6007543414151561072a57600080fd5b610774600160048381548110151561073e57fe5b906000526020600020906003020160020160069054906101000a900463ffffffff1663ffffffff1661149690919063ffffffff16565b60048281548110151561078357fe5b906000526020600020906003020160020160066101000a81548163ffffffff021916908363ffffffff16021790555050565b60056020528060005260406000206000915054906101000a900473ffffffffffffffffffffffffffffffffffffffff1681565b806005600082815260200190815260200160002060009054906101000a900473ffffffffffffffffffffffffffffffffffffffff1673ffffffffffffffffffffffffffffffffffffffff163373ffffffffffffffffffffffffffffffffffffffff1614151561085657600080fd5b3373ffffffffffffffffffffffffffffffffffffffff166108fc3073ffffffffffffffffffffffffffffffffffffffff16319081150290604051600060405180830381858888f193505050501580156108b3573d6000803e3d6000fd5b505050565b816005600082815260200190815260200160002060009054906101000a900473ffffffffffffffffffffffffffffffffffffffff1673ffffffffffffffffffffffffffffffffffffffff163373ffffffffffffffffffffffffffffffffffffffff1614151561092657600080fd5b600060048481548110151561093757fe5b906000526020600020906003020190506001151581600201600f9054906101000a900460ff16151514151561096b57600080fd5b60006064610978856114c0565b81151561098157fe5b069050600a54811115156109e4576109b960018360020160009054906101000a900461ffff1661ffff1661150090919063ffffffff16565b61ffff168260020160066101000a81548163ffffffff021916908363ffffffff160217905550610a5b565b610a12600183600201600a9054906101000a900463ffffffff1663ffffffff1661149690919063ffffffff16565b82600201600a6101000a81548163ffffffff021916908363ffffffff160217905550600082600201600f6101000a81548160ff021916908315150217905550610a5a82611526565b5b5050505050565b6000600660003373ffffffffffffffffffffffffffffffffffffffff1673ffffffffffffffffffffffffffffffffffffffff16815260200190815260200160002054141515610ab057600080fd5b6000610abb82611550565b9050606481811515610ac957fe5b0681039050610ad88382611574565b505050565b610ae5610bd8565b1515610af057600080fd5b600073ffffffffffffffffffffffffffffffffffffffff166000809054906101000a900473ffffffffffffffffffffffffffffffffffffffff1673ffffffffffffffffffffffffffffffffffffffff167f8be0079c531659141344cd1fd0a4f28419497f9722a3daafe3b4186f6b6457e060405160405180910390a360008060006101000a81548173ffffffffffffffffffffffffffffffffffffffff021916908373ffffffffffffffffffffffffffffffffffffffff160217905550565b60008060009054906101000a900473ffffffffffffffffffffffffffffffffffffffff16905090565b60008060009054906101000a900473ffffffffffffffffffffffffffffffffffffffff1673ffffffffffffffffffffffffffffffffffffffff163373ffffffffffffffffffffffffffffffffffffffff1614905090565b606080600660008473ffffffffffffffffffffffffffffffffffffffff1673ffffffffffffffffffffffffffffffffffffffff16815260200190815260200160002054604051908082528060200260200182016040528015610ca05781602001602082028038833980820191505090505b509050600080905060008090505b600480549050811015610d55578473ffffffffffffffffffffffffffffffffffffffff166005600083815260200190815260200160002060009054906101000a900473ffffffffffffffffffffffffffffffffffffffff1673ffffffffffffffffffffffffffffffffffffffff161415610d4857808383815181101515610d3157fe5b906020019060200201818152505081806001019250505b8080600101915050610cae565b508192505050919050565b600481815481101515610d6f57fe5b9060005260206000209060030201600091509050806000018054600181600116156101000203166002900480601f016020809104026020016040519081016040528092919081815260200182805460018160011615610100020316600290048015610e1b5780601f10610df057610100808354040283529160200191610e1b565b820191906000526020600020905b815481529060010190602001808311610dfe57829003601f168201915b5050505050908060010154908060020160009054906101000a900461ffff16908060020160029054906101000a900463ffffffff16908060020160069054906101000a900463ffffffff169080600201600a9054906101000a900463ffffffff169080600201600e9054906101000a900460ff169080600201600f9054906101000a900460ff16905088565b826005600082815260200190815260200160002060009054906101000a900473ffffffffffffffffffffffffffffffffffffffff1673ffffffffffffffffffffffffffffffffffffffff163373ffffffffffffffffffffffffffffffffffffffff16141515610f1557600080fd5b6000600485815481101515610f2657fe5b906000526020600020906003020190506000600485815481101515610f4757fe5b906000526020600020906003020190506001151582600201600e9054906101000a900460ff161515141515610f7b57600080fd5b60006064610f88866114c0565b811515610f9157fe5b06905060095481111515610fb9576001151583600201600f9054906101000a90505050611078565b610fe7600184600201600a9054906101000a900463ffffffff1663ffffffff1661149690919063ffffffff16565b83600201600a6101000a81548163ffffffff021916908363ffffffff160217905550600083600201600e6101000a81548160ff02191690831515021790555061105060018360020160009054906101000a900461ffff1661ffff1661150090919063ffffffff16565b8260020160006101000a81548161ffff021916908361ffff16021790555061107783611526565b5b50505050505050565b611089610bd8565b151561109457600080fd5b8060078190555050565b60066020528060005260406000206000915090505481565b826005600082815260200190815260200160002060009054906101000a900473ffffffffffffffffffffffffffffffffffffffff1673ffffffffffffffffffffffffffffffffffffffff163373ffffffffffffffffffffffffffffffffffffffff1614151561112457600080fd5b600060048581548110151561113557fe5b90600052602060002090600302019050600060048581548110151561115657fe5b90600052602060002090600302019050600063ffffffff168260020160069054906101000a900463ffffffff1663ffffffff1611151561119557600080fd5b600060646111a2866114c0565b8115156111ab57fe5b069050600b548111151561120e576111e760018460020160069054906101000a900463ffffffff1663ffffffff1661149690919063ffffffff16565b8360020160066101000a81548163ffffffff021916908363ffffffff1602179055506112cd565b61123c600184600201600a9054906101000a900463ffffffff1663ffffffff1661149690919063ffffffff16565b83600201600a6101000a81548163ffffffff021916908363ffffffff160217905550600083600201600e6101000a81548160ff0219169083151502179055506112a560018360020160009054906101000a900461ffff1661ffff1661180a90919063ffffffff16565b8260020160006101000a81548161ffff021916908361ffff1602179055506112cc83611526565b5b50505050505050565b826005600082815260200190815260200160002060009054906101000a900473ffffffffffffffffffffffffffffffffffffffff1673ffffffffffffffffffffffffffffffffffffffff163373ffffffffffffffffffffffffffffffffffffffff1614151561134457600080fd5b600060048581548110151561135557fe5b90600052602060002090600302019050600060048581548110151561137657fe5b9060005260206000209060030201905060006064611393866114c0565b81151561139c57fe5b069050600854811115156113cc57600183600201600e6101000a81548160ff02191690831515021790555061146e565b6113fa600184600201600a9054906101000a900463ffffffff1663ffffffff1661149690919063ffffffff16565b83600201600a6101000a81548163ffffffff021916908363ffffffff16021790555061144660018360020160009054906101000a900461ffff1661ffff1661150090919063ffffffff16565b8260020160006101000a81548161ffff021916908361ffff16021790555061146d83611526565b5b50505050505050565b61147f610bd8565b151561148a57600080fd5b6114938161182b565b50565b60008082840190508363ffffffff168163ffffffff16101515156114b657fe5b8091505092915050565b6000600143034082604051602001808381526020018281526020019250505060405160208183030381529060405280519060200120600190049050919050565b60008082840190508361ffff168161ffff161015151561151c57fe5b8091505092915050565b60035442018160020160026101000a81548163ffffffff021916908363ffffffff16021790555050565b60008061155c836114c0565b90506002548181151561156b57fe5b06915050919050565b60006001600461010060405190810160405280868152602001858152602001600061ffff168152602001600354420163ffffffff168152602001600063ffffffff168152602001600063ffffffff1681526020016000151581526020016000151581525090806001815401808255809150509060018203906000526020600020906003020160009091929091909150600082015181600001908051906020019061161f929190611925565b506020820151816001015560408201518160020160006101000a81548161ffff021916908361ffff16021790555060608201518160020160026101000a81548163ffffffff021916908363ffffffff16021790555060808201518160020160066101000a81548163ffffffff021916908363ffffffff16021790555060a082015181600201600a6101000a81548163ffffffff021916908363ffffffff16021790555060c082015181600201600e6101000a81548160ff02191690831515021790555060e082015181600201600f6101000a81548160ff0219169083151502179055505050039050336005600083815260200190815260200160002060006101000a81548173ffffffffffffffffffffffffffffffffffffffff021916908373ffffffffffffffffffffffffffffffffffffffff1602179055507f6a5a3f44c8cd4a79f4c14591e1697a24a0806869bd118a37432415ac2bf11b9b8184846040518084815260200180602001838152602001828103825284818151815260200191508051906020019080838360005b838110156117c95780820151818401526020810190506117ae565b50505050905090810190601f1680156117f65780820380516001836020036101000a031916815260200191505b5094505050505060405180910390a1505050565b60008261ffff168261ffff161115151561182057fe5b818303905092915050565b600073ffffffffffffffffffffffffffffffffffffffff168173ffffffffffffffffffffffffffffffffffffffff161415151561186757600080fd5b8073ffffffffffffffffffffffffffffffffffffffff166000809054906101000a900473ffffffffffffffffffffffffffffffffffffffff1673ffffffffffffffffffffffffffffffffffffffff167f8be0079c531659141344cd1fd0a4f28419497f9722a3daafe3b4186f6b6457e060405160405180910390a3806000806101000a81548173ffffffffffffffffffffffffffffffffffffffff021916908373ffffffffffffffffffffffffffffffffffffffff16021790555050565b828054600181600116156101000203166002900490600052602060002090601f016020900481019282601f1061196657805160ff1916838001178555611994565b82800160010185558215611994579182015b82811115611993578251825591602001919060010190611978565b5b5090506119a191906119a5565b5090565b6119c791905b808211156119c35760008160009055506001016119ab565b5090565b9056fea165627a7a723058204761bc5818018b724133828f560c1faceee46f9d8b2c1f1503cb4c44d38616890029",
  "source": "pragma solidity >=0.5.0 <0.6.0;\r\nimport \"./helper.sol\";\r\n\r\ncontract Abilities is Helper {\r\n    uint dateProbability = 50;\r\n    uint bringHomeProbability = 40;\r\n    uint traumatizeProbability = 20;\r\n    uint donScalpProbability = 20;\r\n\r\n    function _date(uint _ancestorId, uint _crush, uint _luckyNumber) external onlyOwnerOf(_ancestorId) {\r\n        Ancestor storage myAncestor = ancestors[_ancestorId];\r\n        Ancestor storage crush = ancestors[_crush];\r\n        uint rand = _randomGenerator(_luckyNumber) % 100;\r\n        if (rand <= dateProbability) {\r\n            myAncestor.isTaken = true;\r\n        } else {\r\n            myAncestor.rejections = myAncestor.rejections.add(1);\r\n            crush.scalps = crush.scalps.add(1);\r\n            _triggerCooldown(myAncestor);\r\n        }\r\n    }\r\n\r\n    function _bringHome(uint _ancestorId, uint _crush, uint _luckyNumber) external onlyOwnerOf(_ancestorId) {\r\n        Ancestor storage myAncestor = ancestors[_ancestorId];\r\n        Ancestor storage crush = ancestors[_crush];\r\n        require(myAncestor.isTaken == true);       \r\n        uint rand =  _randomGenerator(_luckyNumber) % 100;\r\n        if (rand <= bringHomeProbability) {\r\n            myAncestor.canCrawl == true;\r\n        } else {\r\n            myAncestor.rejections = myAncestor.rejections.add(1);\r\n            myAncestor.isTaken = false;\r\n            crush.scalps = crush.scalps.add(1);\r\n            _triggerCooldown(myAncestor);\r\n        }\r\n    }\r\n    \r\n    function donScalp(uint _ancestorId, uint _luckyNumber) external onlyOwnerOf(_ancestorId) {\r\n        Ancestor storage myAncestor = ancestors[_ancestorId];\r\n        require(myAncestor.canCrawl == true);\r\n        uint rand = _randomGenerator(_luckyNumber) % 100;\r\n        if (rand <= traumatizeProbability) {\r\n            myAncestor.traumaCount = myAncestor.scalps.add(1);\r\n        } else {\r\n            myAncestor.rejections = myAncestor.rejections.add(1);\r\n            myAncestor.canCrawl = false;\r\n            _triggerCooldown(myAncestor);\r\n        }\r\n    }\r\n\r\n    function _traumatize(uint _ancestorId, uint _crush, uint _luckyNumber) external onlyOwnerOf(_ancestorId) {\r\n        Ancestor storage myAncestor = ancestors[_ancestorId];\r\n        Ancestor storage crush = ancestors[_crush];\r\n        require(myAncestor.traumaCount > uint32(0));\r\n        uint rand = _randomGenerator(_luckyNumber) % 100;\r\n        if (rand <= donScalpProbability) {\r\n            myAncestor.traumaCount = myAncestor.traumaCount.add(1);\r\n            } else {\r\n            myAncestor.rejections = myAncestor.rejections.add(1);\r\n            myAncestor.isTaken = false;\r\n            crush.scalps = crush.scalps.sub(1);\r\n            _triggerCooldown(myAncestor);\r\n        }\r\n\r\n    }\r\n\r\n}",
  "sourcePath": "C:/Users/allan/Desktop/portfolio/Ancestor/contracts/abilities.sol",
  "compiler": {
    "name": "solc",
    "version": "0.5.1+commit.c8a2cb62.Emscripten.clang"
  },
  "schemaVersion": "3.0.15",
  "updatedAt": "2020-12-01T20:40:46.569Z",
  "devdoc": {
    "methods": {
      "isOwner()": {
        "return": "true if `msg.sender` is the owner of the contract.\r"
      },
      "owner()": {
        "return": "the address of the owner.\r"
      },
      "renounceOwnership()": {
        "details": "Allows the current owner to relinquish control of the contract.\r"
      },
      "transferOwnership(address)": {
        "details": "Allows the current owner to transfer control of the contract to a newOwner.\r",
        "params": {
          "newOwner": "The address to transfer ownership to.\r"
        }
      }
    }
  },
  "userdoc": {
    "methods": {
      "renounceOwnership()": {
        "notice": "Renouncing to ownership will leave the contract without an owner.\r It will not be possible to call the functions with the `onlyOwner`\r modifier anymore.\r"
      }
    }
  }
}