{
  "contractName": "AncestorOwnership",
  "abi": [
    {
      "constant": false,
      "inputs": [
        {
          "name": "_ancestorId",
          "type": "uint256"
        }
      ],
      "name": "levelUp",
      "outputs": [],
      "payable": true,
      "stateMutability": "payable",
      "type": "function"
    },
    {
      "constant": true,
      "inputs": [
        {
          "name": "",
          "type": "uint256"
        }
      ],
      "name": "ancestorToOwner",
      "outputs": [
        {
          "name": "",
          "type": "address"
        }
      ],
      "payable": false,
      "stateMutability": "view",
      "type": "function"
    },
    {
      "constant": false,
      "inputs": [
        {
          "name": "_ancestorId",
          "type": "uint256"
        }
      ],
      "name": "withdraw",
      "outputs": [],
      "payable": false,
      "stateMutability": "nonpayable",
      "type": "function"
    },
    {
      "constant": false,
      "inputs": [
        {
          "name": "_ancestorId",
          "type": "uint256"
        }
      ],
      "name": "_bringHome",
      "outputs": [],
      "payable": false,
      "stateMutability": "nonpayable",
      "type": "function"
    },
    {
      "constant": false,
      "inputs": [],
      "name": "renounceOwnership",
      "outputs": [],
      "payable": false,
      "stateMutability": "nonpayable",
      "type": "function"
    },
    {
      "constant": false,
      "inputs": [
        {
          "name": "_ancestorId",
          "type": "uint256"
        }
      ],
      "name": "_traumatize",
      "outputs": [],
      "payable": false,
      "stateMutability": "nonpayable",
      "type": "function"
    },
    {
      "constant": false,
      "inputs": [
        {
          "name": "_ancestorId",
          "type": "uint256"
        }
      ],
      "name": "donScalp",
      "outputs": [],
      "payable": false,
      "stateMutability": "nonpayable",
      "type": "function"
    },
    {
      "constant": true,
      "inputs": [],
      "name": "owner",
      "outputs": [
        {
          "name": "",
          "type": "address"
        }
      ],
      "payable": false,
      "stateMutability": "view",
      "type": "function"
    },
    {
      "constant": false,
      "inputs": [
        {
          "name": "_name",
          "type": "string"
        }
      ],
      "name": "_makeRandomAncestor",
      "outputs": [],
      "payable": false,
      "stateMutability": "nonpayable",
      "type": "function"
    },
    {
      "constant": true,
      "inputs": [],
      "name": "isOwner",
      "outputs": [
        {
          "name": "",
          "type": "bool"
        }
      ],
      "payable": false,
      "stateMutability": "view",
      "type": "function"
    },
    {
      "constant": true,
      "inputs": [
        {
          "name": "_owner",
          "type": "address"
        }
      ],
      "name": "getAncestorsByOwner",
      "outputs": [
        {
          "name": "",
          "type": "uint256[]"
        }
      ],
      "payable": false,
      "stateMutability": "view",
      "type": "function"
    },
    {
      "constant": true,
      "inputs": [
        {
          "name": "",
          "type": "uint256"
        }
      ],
      "name": "ancestors",
      "outputs": [
        {
          "name": "name",
          "type": "string"
        },
        {
          "name": "dna",
          "type": "uint256"
        },
        {
          "name": "scalps",
          "type": "uint16"
        },
        {
          "name": "readyTime",
          "type": "uint32"
        },
        {
          "name": "traumaCount",
          "type": "uint32"
        },
        {
          "name": "rejections",
          "type": "uint32"
        },
        {
          "name": "isTaken",
          "type": "bool"
        },
        {
          "name": "canCrawl",
          "type": "bool"
        }
      ],
      "payable": false,
      "stateMutability": "view",
      "type": "function"
    },
    {
      "constant": false,
      "inputs": [
        {
          "name": "_fee",
          "type": "uint256"
        }
      ],
      "name": "setLevelUpFee",
      "outputs": [],
      "payable": false,
      "stateMutability": "nonpayable",
      "type": "function"
    },
    {
      "constant": true,
      "inputs": [
        {
          "name": "",
          "type": "address"
        }
      ],
      "name": "ancestorCount",
      "outputs": [
        {
          "name": "",
          "type": "uint256"
        }
      ],
      "payable": false,
      "stateMutability": "view",
      "type": "function"
    },
    {
      "constant": false,
      "inputs": [
        {
          "name": "newOwner",
          "type": "address"
        }
      ],
      "name": "transferOwnership",
      "outputs": [],
      "payable": false,
      "stateMutability": "nonpayable",
      "type": "function"
    },
    {
      "constant": false,
      "inputs": [
        {
          "name": "_ancestorId",
          "type": "uint256"
        }
      ],
      "name": "_date",
      "outputs": [],
      "payable": false,
      "stateMutability": "nonpayable",
      "type": "function"
    },
    {
      "anonymous": false,
      "inputs": [
        {
          "indexed": false,
          "name": "id",
          "type": "uint256"
        },
        {
          "indexed": false,
          "name": "name",
          "type": "string"
        },
        {
          "indexed": false,
          "name": "dna",
          "type": "uint256"
        }
      ],
      "name": "NewAncestor",
      "type": "event"
    },
    {
      "anonymous": false,
      "inputs": [
        {
          "indexed": true,
          "name": "previousOwner",
          "type": "address"
        },
        {
          "indexed": true,
          "name": "newOwner",
          "type": "address"
        }
      ],
      "name": "OwnershipTransferred",
      "type": "event"
    },
    {
      "anonymous": false,
      "inputs": [
        {
          "indexed": true,
          "name": "_from",
          "type": "address"
        },
        {
          "indexed": true,
          "name": "_to",
          "type": "address"
        },
        {
          "indexed": true,
          "name": "_tokenId",
          "type": "uint256"
        }
      ],
      "name": "Transfer",
      "type": "event"
    },
    {
      "anonymous": false,
      "inputs": [
        {
          "indexed": true,
          "name": "_owner",
          "type": "address"
        },
        {
          "indexed": true,
          "name": "_approved",
          "type": "address"
        },
        {
          "indexed": true,
          "name": "_tokenId",
          "type": "uint256"
        }
      ],
      "name": "Approval",
      "type": "event"
    },
    {
      "constant": true,
      "inputs": [
        {
          "name": "_owner",
          "type": "address"
        }
      ],
      "name": "balanceOf",
      "outputs": [
        {
          "name": "",
          "type": "uint256"
        }
      ],
      "payable": false,
      "stateMutability": "view",
      "type": "function"
    },
    {
      "constant": true,
      "inputs": [
        {
          "name": "_tokenId",
          "type": "uint256"
        }
      ],
      "name": "ownerOf",
      "outputs": [
        {
          "name": "",
          "type": "address"
        }
      ],
      "payable": false,
      "stateMutability": "view",
      "type": "function"
    },
    {
      "constant": false,
      "inputs": [
        {
          "name": "_from",
          "type": "address"
        },
        {
          "name": "_to",
          "type": "address"
        },
        {
          "name": "_tokenId",
          "type": "uint256"
        }
      ],
      "name": "transferFrom",
      "outputs": [],
      "payable": true,
      "stateMutability": "payable",
      "type": "function"
    },
    {
      "constant": false,
      "inputs": [
        {
          "name": "_approved",
          "type": "address"
        },
        {
          "name": "_tokenId",
          "type": "uint256"
        }
      ],
      "name": "approve",
      "outputs": [],
      "payable": true,
      "stateMutability": "payable",
      "type": "function"
    }
  ],
  "bytecode": "0x60806040526010600155600154600a0a6002556201518060035566038d7ea4c68000600755603260085560286009556014600a556014600b556000600c55336000806101000a81548173ffffffffffffffffffffffffffffffffffffffff021916908373ffffffffffffffffffffffffffffffffffffffff1602179055506000809054906101000a900473ffffffffffffffffffffffffffffffffffffffff1673ffffffffffffffffffffffffffffffffffffffff16600073ffffffffffffffffffffffffffffffffffffffff167f8be0079c531659141344cd1fd0a4f28419497f9722a3daafe3b4186f6b6457e060405160405180910390a3611f8d806101086000396000f3fe60806040526004361061010c576000357c010000000000000000000000000000000000000000000000000000000090048063095ea7b3146101115780630ce90ec21461015f578063173549671461018d57806323b872dd146102085780632e1a7d4d1461027657806346582732146102b15780636352211e146102ec57806370a0823114610367578063715018a6146103cc5780637ef9d5b0146103e3578063801f9a181461041e5780638da5cb5b146104595780638daa76f7146104b05780638f32d59b146105785780639b127d1a146105a7578063a0680aae1461064d578063ccf670f814610766578063d1a6497c146107a1578063f2fde38b14610806578063f3db17fb14610857575b600080fd5b61015d6004803603604081101561012757600080fd5b81019080803573ffffffffffffffffffffffffffffffffffffffff16906020019092919080359060200190929190505050610892565b005b61018b6004803603602081101561017557600080fd5b81019080803590602001909291905050506109b2565b005b34801561019957600080fd5b506101c6600480360360208110156101b057600080fd5b8101908080359060200190929190505050610a4d565b604051808273ffffffffffffffffffffffffffffffffffffffff1673ffffffffffffffffffffffffffffffffffffffff16815260200191505060405180910390f35b6102746004803603606081101561021e57600080fd5b81019080803573ffffffffffffffffffffffffffffffffffffffff169060200190929190803573ffffffffffffffffffffffffffffffffffffffff16906020019092919080359060200190929190505050610a80565b005b34801561028257600080fd5b506102af6004803603602081101561029957600080fd5b8101908080359060200190929190505050610b66565b005b3480156102bd57600080fd5b506102ea600480360360208110156102d457600080fd5b8101908080359060200190929190505050610c36565b005b3480156102f857600080fd5b506103256004803603602081101561030f57600080fd5b8101908080359060200190929190505050610d7c565b604051808273ffffffffffffffffffffffffffffffffffffffff1673ffffffffffffffffffffffffffffffffffffffff16815260200191505060405180910390f35b34801561037357600080fd5b506103b66004803603602081101561038a57600080fd5b81019080803573ffffffffffffffffffffffffffffffffffffffff169060200190929190505050610db9565b6040518082815260200191505060405180910390f35b3480156103d857600080fd5b506103e1610e02565b005b3480156103ef57600080fd5b5061041c6004803603602081101561040657600080fd5b8101908080359060200190929190505050610ed4565b005b34801561042a57600080fd5b506104576004803603602081101561044157600080fd5b8101908080359060200190929190505050611060565b005b34801561046557600080fd5b5061046e6111e1565b604051808273ffffffffffffffffffffffffffffffffffffffff1673ffffffffffffffffffffffffffffffffffffffff16815260200191505060405180910390f35b3480156104bc57600080fd5b50610576600480360360208110156104d357600080fd5b81019080803590602001906401000000008111156104f057600080fd5b82018360208201111561050257600080fd5b8035906020019184600183028401116401000000008311171561052457600080fd5b91908080601f016020809104026020016040519081016040528093929190818152602001838380828437600081840152601f19601f82011690508083019250505050505050919291929050505061120a565b005b34801561058457600080fd5b5061058d611284565b604051808215151515815260200191505060405180910390f35b3480156105b357600080fd5b506105f6600480360360208110156105ca57600080fd5b81019080803573ffffffffffffffffffffffffffffffffffffffff1690602001909291905050506112db565b6040518080602001828103825283818151815260200191508051906020019060200280838360005b8381101561063957808201518184015260208101905061061e565b505050509050019250505060405180910390f35b34801561065957600080fd5b506106866004803603602081101561067057600080fd5b810190808035906020019092919050505061140c565b60405180806020018981526020018861ffff1661ffff1681526020018763ffffffff1663ffffffff1681526020018663ffffffff1663ffffffff1681526020018563ffffffff1663ffffffff168152602001841515151581526020018315151515815260200182810382528a818151815260200191508051906020019080838360005b83811015610724578082015181840152602081019050610709565b50505050905090810190601f1680156107515780820380516001836020036101000a031916815260200191505b50995050505050505050505060405180910390f35b34801561077257600080fd5b5061079f6004803603602081101561078957600080fd5b8101908080359060200190929190505050611553565b005b3480156107ad57600080fd5b506107f0600480360360208110156107c457600080fd5b81019080803573ffffffffffffffffffffffffffffffffffffffff169060200190929190505050611570565b6040518082815260200191505060405180910390f35b34801561081257600080fd5b506108556004803603602081101561082957600080fd5b81019080803573ffffffffffffffffffffffffffffffffffffffff169060200190929190505050611588565b005b34801561086357600080fd5b506108906004803603602081101561087a57600080fd5b81019080803590602001909291905050506115a7565b005b806005600082815260200190815260200160002060009054906101000a900473ffffffffffffffffffffffffffffffffffffffff1673ffffffffffffffffffffffffffffffffffffffff163373ffffffffffffffffffffffffffffffffffffffff1614151561090057600080fd5b82600d600084815260200190815260200160002060006101000a81548173ffffffffffffffffffffffffffffffffffffffff021916908373ffffffffffffffffffffffffffffffffffffffff160217905550818373ffffffffffffffffffffffffffffffffffffffff163373ffffffffffffffffffffffffffffffffffffffff167f8c5be1e5ebec7d5bd14f71427d1e84f3dd0314c0f7b2291e5b200ac8c7c3b92560405160405180910390a4505050565b600754341415156109c257600080fd5b610a0c60016004838154811015156109d657fe5b906000526020600020906003020160020160069054906101000a900463ffffffff1663ffffffff166116d190919063ffffffff16565b600482815481101515610a1b57fe5b906000526020600020906003020160020160066101000a81548163ffffffff021916908363ffffffff16021790555050565b60056020528060005260406000206000915054906101000a900473ffffffffffffffffffffffffffffffffffffffff1681565b3373ffffffffffffffffffffffffffffffffffffffff166005600083815260200190815260200160002060009054906101000a900473ffffffffffffffffffffffffffffffffffffffff1673ffffffffffffffffffffffffffffffffffffffff161480610b4b57503373ffffffffffffffffffffffffffffffffffffffff16600d600083815260200190815260200160002060009054906101000a900473ffffffffffffffffffffffffffffffffffffffff1673ffffffffffffffffffffffffffffffffffffffff16145b1515610b5657600080fd5b610b618383836116fb565b505050565b806005600082815260200190815260200160002060009054906101000a900473ffffffffffffffffffffffffffffffffffffffff1673ffffffffffffffffffffffffffffffffffffffff163373ffffffffffffffffffffffffffffffffffffffff16141515610bd457600080fd5b3373ffffffffffffffffffffffffffffffffffffffff166108fc3073ffffffffffffffffffffffffffffffffffffffff16319081150290604051600060405180830381858888f19350505050158015610c31573d6000803e3d6000fd5b505050565b806005600082815260200190815260200160002060009054906101000a900473ffffffffffffffffffffffffffffffffffffffff1673ffffffffffffffffffffffffffffffffffffffff163373ffffffffffffffffffffffffffffffffffffffff16141515610ca457600080fd5b6000600483815481101515610cb557fe5b906000526020600020906003020190506001151581600201600e9054906101000a900460ff161515141515610ce957600080fd5b6000610cf560646118d9565b905060095481111515610d1c576001151582600201600f9054906101000a90505050610d76565b610d4a600183600201600a9054906101000a900463ffffffff1663ffffffff166116d190919063ffffffff16565b82600201600a6101000a81548163ffffffff021916908363ffffffff160217905550610d758261197c565b5b50505050565b60006005600083815260200190815260200160002060009054906101000a900473ffffffffffffffffffffffffffffffffffffffff169050919050565b6000600660008373ffffffffffffffffffffffffffffffffffffffff1673ffffffffffffffffffffffffffffffffffffffff168152602001908152602001600020549050919050565b610e0a611284565b1515610e1557600080fd5b600073ffffffffffffffffffffffffffffffffffffffff166000809054906101000a900473ffffffffffffffffffffffffffffffffffffffff1673ffffffffffffffffffffffffffffffffffffffff167f8be0079c531659141344cd1fd0a4f28419497f9722a3daafe3b4186f6b6457e060405160405180910390a360008060006101000a81548173ffffffffffffffffffffffffffffffffffffffff021916908373ffffffffffffffffffffffffffffffffffffffff160217905550565b806005600082815260200190815260200160002060009054906101000a900473ffffffffffffffffffffffffffffffffffffffff1673ffffffffffffffffffffffffffffffffffffffff163373ffffffffffffffffffffffffffffffffffffffff16141515610f4257600080fd5b6000600483815481101515610f5357fe5b90600052602060002090600302019050600063ffffffff168160020160069054906101000a900463ffffffff1663ffffffff16111515610f9257600080fd5b6000610f9e60646118d9565b9050600b548111151561100057610fd960018360020160069054906101000a900463ffffffff1663ffffffff166116d190919063ffffffff16565b8260020160066101000a81548163ffffffff021916908363ffffffff16021790555061105a565b61102e600183600201600a9054906101000a900463ffffffff1663ffffffff166116d190919063ffffffff16565b82600201600a6101000a81548163ffffffff021916908363ffffffff1602179055506110598261197c565b5b50505050565b806005600082815260200190815260200160002060009054906101000a900473ffffffffffffffffffffffffffffffffffffffff1673ffffffffffffffffffffffffffffffffffffffff163373ffffffffffffffffffffffffffffffffffffffff161415156110ce57600080fd5b60006004838154811015156110df57fe5b906000526020600020906003020190506001151581600201600f9054906101000a900460ff16151514151561111357600080fd5b600061111f60646118d9565b9050600a54811115156111815761115660018360020160009054906101000a900461ffff1661ffff166119a690919063ffffffff16565b61ffff168260020160066101000a81548163ffffffff021916908363ffffffff1602179055506111db565b6111af600183600201600a9054906101000a900463ffffffff1663ffffffff166116d190919063ffffffff16565b82600201600a6101000a81548163ffffffff021916908363ffffffff1602179055506111da8261197c565b5b50505050565b60008060009054906101000a900473ffffffffffffffffffffffffffffffffffffffff16905090565b6000600660003373ffffffffffffffffffffffffffffffffffffffff1673ffffffffffffffffffffffffffffffffffffffff1681526020019081526020016000205414151561125857600080fd5b6000611263826119cc565b905060648181151561127157fe5b06810390506112808282611a5f565b5050565b60008060009054906101000a900473ffffffffffffffffffffffffffffffffffffffff1673ffffffffffffffffffffffffffffffffffffffff163373ffffffffffffffffffffffffffffffffffffffff1614905090565b606080600660008473ffffffffffffffffffffffffffffffffffffffff1673ffffffffffffffffffffffffffffffffffffffff1681526020019081526020016000205460405190808252806020026020018201604052801561134c5781602001602082028038833980820191505090505b509050600080905060008090505b600480549050811015611401578473ffffffffffffffffffffffffffffffffffffffff166005600083815260200190815260200160002060009054906101000a900473ffffffffffffffffffffffffffffffffffffffff1673ffffffffffffffffffffffffffffffffffffffff1614156113f4578083838151811015156113dd57fe5b906020019060200201818152505081806001019250505b808060010191505061135a565b508192505050919050565b60048181548110151561141b57fe5b9060005260206000209060030201600091509050806000018054600181600116156101000203166002900480601f0160208091040260200160405190810160405280929190818152602001828054600181600116156101000203166002900480156114c75780601f1061149c576101008083540402835291602001916114c7565b820191906000526020600020905b8154815290600101906020018083116114aa57829003601f168201915b5050505050908060010154908060020160009054906101000a900461ffff16908060020160029054906101000a900463ffffffff16908060020160069054906101000a900463ffffffff169080600201600a9054906101000a900463ffffffff169080600201600e9054906101000a900460ff169080600201600f9054906101000a900460ff16905088565b61155b611284565b151561156657600080fd5b8060078190555050565b60066020528060005260406000206000915090505481565b611590611284565b151561159b57600080fd5b6115a481611d8b565b50565b806005600082815260200190815260200160002060009054906101000a900473ffffffffffffffffffffffffffffffffffffffff1673ffffffffffffffffffffffffffffffffffffffff163373ffffffffffffffffffffffffffffffffffffffff1614151561161557600080fd5b600060048381548110151561162657fe5b90600052602060002090600302019050600061164260646118d9565b90506008548111151561167157600182600201600e6101000a81548160ff0219169083151502179055506116cb565b61169f600183600201600a9054906101000a900463ffffffff1663ffffffff166116d190919063ffffffff16565b82600201600a6101000a81548163ffffffff021916908363ffffffff1602179055506116ca8261197c565b5b50505050565b60008082840190508363ffffffff168163ffffffff16101515156116f157fe5b8091505092915050565b61174e6001600660008573ffffffffffffffffffffffffffffffffffffffff1673ffffffffffffffffffffffffffffffffffffffff16815260200190815260200160002054611e8590919063ffffffff16565b600660008473ffffffffffffffffffffffffffffffffffffffff1673ffffffffffffffffffffffffffffffffffffffff168152602001908152602001600020819055506117e46001600660003373ffffffffffffffffffffffffffffffffffffffff1673ffffffffffffffffffffffffffffffffffffffff16815260200190815260200160002054611ea390919063ffffffff16565b600660003373ffffffffffffffffffffffffffffffffffffffff1673ffffffffffffffffffffffffffffffffffffffff16815260200190815260200160002081905550816005600083815260200190815260200160002060006101000a81548173ffffffffffffffffffffffffffffffffffffffff021916908373ffffffffffffffffffffffffffffffffffffffff160217905550808273ffffffffffffffffffffffffffffffffffffffff168473ffffffffffffffffffffffffffffffffffffffff167fddf252ad1be2c89b69c2b068fc378daa952ba7f163c4a11628f55a4df523b3ef60405160405180910390a4505050565b6000600c600081548092919060010191905055600c81905550814233600c54604051602001808481526020018373ffffffffffffffffffffffffffffffffffffffff1673ffffffffffffffffffffffffffffffffffffffff166c010000000000000000000000000281526014018281526020019350505050604051602081830303815290604052805190602001206001900481151561197457fe5b069050919050565b60035442018160020160026101000a81548163ffffffff021916908363ffffffff16021790555050565b60008082840190508361ffff168161ffff16101515156119c257fe5b8091505092915050565b600080826040516020018082805190602001908083835b602083101515611a0857805182526020820191506020810190506020830392506119e3565b6001836020036101000a0380198251168184511680821785525050505050509050019150506040516020818303038152906040528051906020012060019004905060025481811515611a5657fe5b06915050919050565b60006001600461010060405190810160405280868152602001858152602001600061ffff168152602001600354420163ffffffff168152602001600063ffffffff168152602001600063ffffffff16815260200160001515815260200160001515815250908060018154018082558091505090600182039060005260206000209060030201600090919290919091506000820151816000019080519060200190611b0a929190611ebc565b506020820151816001015560408201518160020160006101000a81548161ffff021916908361ffff16021790555060608201518160020160026101000a81548163ffffffff021916908363ffffffff16021790555060808201518160020160066101000a81548163ffffffff021916908363ffffffff16021790555060a082015181600201600a6101000a81548163ffffffff021916908363ffffffff16021790555060c082015181600201600e6101000a81548160ff02191690831515021790555060e082015181600201600f6101000a81548160ff0219169083151502179055505050039050336005600083815260200190815260200160002060006101000a81548173ffffffffffffffffffffffffffffffffffffffff021916908373ffffffffffffffffffffffffffffffffffffffff160217905550611c976001600660003373ffffffffffffffffffffffffffffffffffffffff1673ffffffffffffffffffffffffffffffffffffffff16815260200190815260200160002054611e8590919063ffffffff16565b600660003373ffffffffffffffffffffffffffffffffffffffff1673ffffffffffffffffffffffffffffffffffffffff168152602001908152602001600020819055507f6a5a3f44c8cd4a79f4c14591e1697a24a0806869bd118a37432415ac2bf11b9b8184846040518084815260200180602001838152602001828103825284818151815260200191508051906020019080838360005b83811015611d4a578082015181840152602081019050611d2f565b50505050905090810190601f168015611d775780820380516001836020036101000a031916815260200191505b5094505050505060405180910390a1505050565b600073ffffffffffffffffffffffffffffffffffffffff168173ffffffffffffffffffffffffffffffffffffffff1614151515611dc757600080fd5b8073ffffffffffffffffffffffffffffffffffffffff166000809054906101000a900473ffffffffffffffffffffffffffffffffffffffff1673ffffffffffffffffffffffffffffffffffffffff167f8be0079c531659141344cd1fd0a4f28419497f9722a3daafe3b4186f6b6457e060405160405180910390a3806000806101000a81548173ffffffffffffffffffffffffffffffffffffffff021916908373ffffffffffffffffffffffffffffffffffffffff16021790555050565b6000808284019050838110151515611e9957fe5b8091505092915050565b6000828211151515611eb157fe5b818303905092915050565b828054600181600116156101000203166002900490600052602060002090601f016020900481019282601f10611efd57805160ff1916838001178555611f2b565b82800160010185558215611f2b579182015b82811115611f2a578251825591602001919060010190611f0f565b5b509050611f389190611f3c565b5090565b611f5e91905b80821115611f5a576000816000905550600101611f42565b5090565b9056fea165627a7a723058203687556a6e1d0561ce935a5a9b7839ad6d0cb7609662987da7cacfd30bc7f3bc0029",
  "source": "pragma solidity >=0.5.0 <0.6.0;\r\n\r\nimport \"./erc721.sol\";\r\nimport \"./safemath.sol\";\r\nimport \"./helper.sol\";\r\n\r\ncontract AncestorOwnership is ERC721, Helper {\r\n\r\n  using SafeMath for uint256;\r\n\r\n  mapping (uint => address) ancestorApprovals;\r\n\r\n  function balanceOf(address _owner) external view returns (uint256) {\r\n    return ancestorCount[_owner];\r\n  }\r\n\r\n  function ownerOf(uint256 _tokenId) external view returns (address) {\r\n    return ancestorToOwner[_tokenId];\r\n  }\r\n\r\n  function _transfer(address _from, address _to, uint256 _tokenId) private {\r\n    ancestorCount[_to] = ancestorCount[_to].add(1);\r\n    ancestorCount[msg.sender] = ancestorCount[msg.sender].sub(1);\r\n    ancestorToOwner[_tokenId] = _to;\r\n    emit Transfer(_from, _to, _tokenId);\r\n  }\r\n\r\n  function transferFrom(address _from, address _to, uint256 _tokenId) external payable {\r\n    require (ancestorToOwner[_tokenId] == msg.sender || ancestorApprovals[_tokenId] == msg.sender);\r\n    _transfer(_from, _to, _tokenId);\r\n  }\r\n\r\n  function approve(address _approved, uint256 _tokenId) external payable onlyOwnerOf(_tokenId) {\r\n    ancestorApprovals[_tokenId] = _approved;\r\n    emit Approval(msg.sender, _approved, _tokenId);\r\n  }\r\n\r\n}\r\n",
  "sourcePath": "C:/Users/allan/Desktop/portfolio/Ancestor/contracts/ownership.sol",
  "compiler": {
    "name": "solc",
    "version": "0.5.1+commit.c8a2cb62.Emscripten.clang"
  },
  "schemaVersion": "3.0.15",
  "updatedAt": "2020-11-11T21:08:35.468Z",
  "devdoc": {
    "methods": {
      "isOwner()": {
        "return": "true if `msg.sender` is the owner of the contract.\r"
      },
      "owner()": {
        "return": "the address of the owner.\r"
      },
      "renounceOwnership()": {
        "details": "Allows the current owner to relinquish control of the contract.\r"
      },
      "transferOwnership(address)": {
        "details": "Allows the current owner to transfer control of the contract to a newOwner.\r",
        "params": {
          "newOwner": "The address to transfer ownership to.\r"
        }
      }
    }
  },
  "userdoc": {
    "methods": {
      "renounceOwnership()": {
        "notice": "Renouncing to ownership will leave the contract without an owner.\r It will not be possible to call the functions with the `onlyOwner`\r modifier anymore.\r"
      }
    }
  }
}