{
  "contractName": "Helper",
  "abi": [
    {
      "constant": true,
      "inputs": [
        {
          "name": "",
          "type": "uint256"
        }
      ],
      "name": "ancestorToOwner",
      "outputs": [
        {
          "name": "",
          "type": "address"
        }
      ],
      "payable": false,
      "stateMutability": "view",
      "type": "function"
    },
    {
      "constant": false,
      "inputs": [
        {
          "name": "_name",
          "type": "string"
        },
        {
          "name": "seed",
          "type": "uint256"
        }
      ],
      "name": "_makeRandomAncestor",
      "outputs": [],
      "payable": false,
      "stateMutability": "nonpayable",
      "type": "function"
    },
    {
      "constant": false,
      "inputs": [],
      "name": "renounceOwnership",
      "outputs": [],
      "payable": false,
      "stateMutability": "nonpayable",
      "type": "function"
    },
    {
      "constant": true,
      "inputs": [],
      "name": "owner",
      "outputs": [
        {
          "name": "",
          "type": "address"
        }
      ],
      "payable": false,
      "stateMutability": "view",
      "type": "function"
    },
    {
      "constant": true,
      "inputs": [],
      "name": "isOwner",
      "outputs": [
        {
          "name": "",
          "type": "bool"
        }
      ],
      "payable": false,
      "stateMutability": "view",
      "type": "function"
    },
    {
      "constant": true,
      "inputs": [
        {
          "name": "",
          "type": "uint256"
        }
      ],
      "name": "ancestors",
      "outputs": [
        {
          "name": "name",
          "type": "string"
        },
        {
          "name": "dna",
          "type": "uint256"
        },
        {
          "name": "scalps",
          "type": "uint16"
        },
        {
          "name": "readyTime",
          "type": "uint32"
        },
        {
          "name": "traumaCount",
          "type": "uint32"
        },
        {
          "name": "rejections",
          "type": "uint32"
        },
        {
          "name": "isTaken",
          "type": "bool"
        },
        {
          "name": "canCrawl",
          "type": "bool"
        }
      ],
      "payable": false,
      "stateMutability": "view",
      "type": "function"
    },
    {
      "constant": false,
      "inputs": [
        {
          "name": "newOwner",
          "type": "address"
        }
      ],
      "name": "transferOwnership",
      "outputs": [],
      "payable": false,
      "stateMutability": "nonpayable",
      "type": "function"
    },
    {
      "anonymous": false,
      "inputs": [
        {
          "indexed": false,
          "name": "id",
          "type": "uint256"
        },
        {
          "indexed": false,
          "name": "name",
          "type": "string"
        },
        {
          "indexed": false,
          "name": "dna",
          "type": "uint256"
        }
      ],
      "name": "NewAncestor",
      "type": "event"
    },
    {
      "anonymous": false,
      "inputs": [
        {
          "indexed": true,
          "name": "previousOwner",
          "type": "address"
        },
        {
          "indexed": true,
          "name": "newOwner",
          "type": "address"
        }
      ],
      "name": "OwnershipTransferred",
      "type": "event"
    },
    {
      "constant": false,
      "inputs": [
        {
          "name": "_ancestorId",
          "type": "uint256"
        }
      ],
      "name": "withdraw",
      "outputs": [],
      "payable": false,
      "stateMutability": "nonpayable",
      "type": "function"
    },
    {
      "constant": false,
      "inputs": [
        {
          "name": "_fee",
          "type": "uint256"
        }
      ],
      "name": "setLevelUpFee",
      "outputs": [],
      "payable": false,
      "stateMutability": "nonpayable",
      "type": "function"
    },
    {
      "constant": false,
      "inputs": [
        {
          "name": "_ancestorId",
          "type": "uint256"
        }
      ],
      "name": "levelUp",
      "outputs": [],
      "payable": true,
      "stateMutability": "payable",
      "type": "function"
    },
    {
      "constant": true,
      "inputs": [
        {
          "name": "_owner",
          "type": "address"
        }
      ],
      "name": "getAncestorsByOwner",
      "outputs": [
        {
          "name": "",
          "type": "uint256[]"
        }
      ],
      "payable": false,
      "stateMutability": "view",
      "type": "function"
    }
  ],
  "bytecode": "0x60806040526010600155600154600a0a6002556201518060035566038d7ea4c68000600755336000806101000a81548173ffffffffffffffffffffffffffffffffffffffff021916908373ffffffffffffffffffffffffffffffffffffffff1602179055506000809054906101000a900473ffffffffffffffffffffffffffffffffffffffff1673ffffffffffffffffffffffffffffffffffffffff16600073ffffffffffffffffffffffffffffffffffffffff167f8be0079c531659141344cd1fd0a4f28419497f9722a3daafe3b4186f6b6457e060405160405180910390a36110a9806100ef6000396000f3fe6080604052600436106100a9576000357c0100000000000000000000000000000000000000000000000000000000900480630ce90ec2146100ae57806317354967146100dc5780632e1a7d4d146101575780633b76f67614610192578063715018a6146102645780638da5cb5b1461027b5780638f32d59b146102d25780639b127d1a14610301578063a0680aae146103a7578063ccf670f8146104c0578063f2fde38b146104fb575b600080fd5b6100da600480360360208110156100c457600080fd5b810190808035906020019092919050505061054c565b005b3480156100e857600080fd5b50610115600480360360208110156100ff57600080fd5b81019080803590602001909291905050506105e7565b604051808273ffffffffffffffffffffffffffffffffffffffff1673ffffffffffffffffffffffffffffffffffffffff16815260200191505060405180910390f35b34801561016357600080fd5b506101906004803603602081101561017a57600080fd5b810190808035906020019092919050505061061a565b005b34801561019e57600080fd5b50610262600480360360408110156101b557600080fd5b81019080803590602001906401000000008111156101d257600080fd5b8201836020820111156101e457600080fd5b8035906020019184600183028401116401000000008311171561020657600080fd5b91908080601f016020809104026020016040519081016040528093929190818152602001838380828437600081840152601f19601f820116905080830192505050505050509192919290803590602001909291905050506106ea565b005b34801561027057600080fd5b50610279610765565b005b34801561028757600080fd5b50610290610837565b604051808273ffffffffffffffffffffffffffffffffffffffff1673ffffffffffffffffffffffffffffffffffffffff16815260200191505060405180910390f35b3480156102de57600080fd5b506102e7610860565b604051808215151515815260200191505060405180910390f35b34801561030d57600080fd5b506103506004803603602081101561032457600080fd5b81019080803573ffffffffffffffffffffffffffffffffffffffff1690602001909291905050506108b7565b6040518080602001828103825283818151815260200191508051906020019060200280838360005b83811015610393578082015181840152602081019050610378565b505050509050019250505060405180910390f35b3480156103b357600080fd5b506103e0600480360360208110156103ca57600080fd5b81019080803590602001909291905050506109e8565b60405180806020018981526020018861ffff1661ffff1681526020018763ffffffff1663ffffffff1681526020018663ffffffff1663ffffffff1681526020018563ffffffff1663ffffffff168152602001841515151581526020018315151515815260200182810382528a818151815260200191508051906020019080838360005b8381101561047e578082015181840152602081019050610463565b50505050905090810190601f1680156104ab5780820380516001836020036101000a031916815260200191505b50995050505050505050505060405180910390f35b3480156104cc57600080fd5b506104f9600480360360208110156104e357600080fd5b8101908080359060200190929190505050610b2f565b005b34801561050757600080fd5b5061054a6004803603602081101561051e57600080fd5b81019080803573ffffffffffffffffffffffffffffffffffffffff169060200190929190505050610b4c565b005b6007543414151561055c57600080fd5b6105a6600160048381548110151561057057fe5b906000526020600020906003020160020160069054906101000a900463ffffffff1663ffffffff16610b6b90919063ffffffff16565b6004828154811015156105b557fe5b906000526020600020906003020160020160066101000a81548163ffffffff021916908363ffffffff16021790555050565b60056020528060005260406000206000915054906101000a900473ffffffffffffffffffffffffffffffffffffffff1681565b806005600082815260200190815260200160002060009054906101000a900473ffffffffffffffffffffffffffffffffffffffff1673ffffffffffffffffffffffffffffffffffffffff163373ffffffffffffffffffffffffffffffffffffffff1614151561068857600080fd5b3373ffffffffffffffffffffffffffffffffffffffff166108fc3073ffffffffffffffffffffffffffffffffffffffff16319081150290604051600060405180830381858888f193505050501580156106e5573d6000803e3d6000fd5b505050565b6000600660003373ffffffffffffffffffffffffffffffffffffffff1673ffffffffffffffffffffffffffffffffffffffff1681526020019081526020016000205414151561073857600080fd5b600061074382610b95565b905060648181151561075157fe5b06810390506107608382610bb9565b505050565b61076d610860565b151561077857600080fd5b600073ffffffffffffffffffffffffffffffffffffffff166000809054906101000a900473ffffffffffffffffffffffffffffffffffffffff1673ffffffffffffffffffffffffffffffffffffffff167f8be0079c531659141344cd1fd0a4f28419497f9722a3daafe3b4186f6b6457e060405160405180910390a360008060006101000a81548173ffffffffffffffffffffffffffffffffffffffff021916908373ffffffffffffffffffffffffffffffffffffffff160217905550565b60008060009054906101000a900473ffffffffffffffffffffffffffffffffffffffff16905090565b60008060009054906101000a900473ffffffffffffffffffffffffffffffffffffffff1673ffffffffffffffffffffffffffffffffffffffff163373ffffffffffffffffffffffffffffffffffffffff1614905090565b606080600660008473ffffffffffffffffffffffffffffffffffffffff1673ffffffffffffffffffffffffffffffffffffffff168152602001908152602001600020546040519080825280602002602001820160405280156109285781602001602082028038833980820191505090505b509050600080905060008090505b6004805490508110156109dd578473ffffffffffffffffffffffffffffffffffffffff166005600083815260200190815260200160002060009054906101000a900473ffffffffffffffffffffffffffffffffffffffff1673ffffffffffffffffffffffffffffffffffffffff1614156109d0578083838151811015156109b957fe5b906020019060200201818152505081806001019250505b8080600101915050610936565b508192505050919050565b6004818154811015156109f757fe5b9060005260206000209060030201600091509050806000018054600181600116156101000203166002900480601f016020809104026020016040519081016040528092919081815260200182805460018160011615610100020316600290048015610aa35780601f10610a7857610100808354040283529160200191610aa3565b820191906000526020600020905b815481529060010190602001808311610a8657829003601f168201915b5050505050908060010154908060020160009054906101000a900461ffff16908060020160029054906101000a900463ffffffff16908060020160069054906101000a900463ffffffff169080600201600a9054906101000a900463ffffffff169080600201600e9054906101000a900460ff169080600201600f9054906101000a900460ff16905088565b610b37610860565b1515610b4257600080fd5b8060078190555050565b610b54610860565b1515610b5f57600080fd5b610b6881610e9e565b50565b60008082840190508363ffffffff168163ffffffff1610151515610b8b57fe5b8091505092915050565b600080610ba183610f98565b905060025481811515610bb057fe5b06915050919050565b60006001600461010060405190810160405280868152602001858152602001600061ffff168152602001600354420163ffffffff168152602001600063ffffffff168152602001600063ffffffff16815260200160001515815260200160001515815250908060018154018082558091505090600182039060005260206000209060030201600090919290919091506000820151816000019080519060200190610c64929190610fd8565b506020820151816001015560408201518160020160006101000a81548161ffff021916908361ffff16021790555060608201518160020160026101000a81548163ffffffff021916908363ffffffff16021790555060808201518160020160066101000a81548163ffffffff021916908363ffffffff16021790555060a082015181600201600a6101000a81548163ffffffff021916908363ffffffff16021790555060c082015181600201600e6101000a81548160ff02191690831515021790555060e082015181600201600f6101000a81548160ff0219169083151502179055505050039050336005600083815260200190815260200160002060006101000a81548173ffffffffffffffffffffffffffffffffffffffff021916908373ffffffffffffffffffffffffffffffffffffffff160217905550600660003373ffffffffffffffffffffffffffffffffffffffff1673ffffffffffffffffffffffffffffffffffffffff168152602001908152602001600020600081548092919060010191905055507f6a5a3f44c8cd4a79f4c14591e1697a24a0806869bd118a37432415ac2bf11b9b8184846040518084815260200180602001838152602001828103825284818151815260200191508051906020019080838360005b83811015610e5d578082015181840152602081019050610e42565b50505050905090810190601f168015610e8a5780820380516001836020036101000a031916815260200191505b5094505050505060405180910390a1505050565b600073ffffffffffffffffffffffffffffffffffffffff168173ffffffffffffffffffffffffffffffffffffffff1614151515610eda57600080fd5b8073ffffffffffffffffffffffffffffffffffffffff166000809054906101000a900473ffffffffffffffffffffffffffffffffffffffff1673ffffffffffffffffffffffffffffffffffffffff167f8be0079c531659141344cd1fd0a4f28419497f9722a3daafe3b4186f6b6457e060405160405180910390a3806000806101000a81548173ffffffffffffffffffffffffffffffffffffffff021916908373ffffffffffffffffffffffffffffffffffffffff16021790555050565b6000600143034082604051602001808381526020018281526020019250505060405160208183030381529060405280519060200120600190049050919050565b828054600181600116156101000203166002900490600052602060002090601f016020900481019282601f1061101957805160ff1916838001178555611047565b82800160010185558215611047579182015b8281111561104657825182559160200191906001019061102b565b5b5090506110549190611058565b5090565b61107a91905b8082111561107657600081600090555060010161105e565b5090565b9056fea165627a7a723058202bd896a3d2fae9d3fdcc5f886e1cfeb875433a9502180f32b6f079c3697f8f080029",
  "source": "pragma solidity >=0.5.0 <0.6.0;\r\nimport \"./themaker.sol\";\r\n\r\ncontract Helper is TheMaker {\r\n    \r\n  uint levelUpFee = 0.001 ether;\r\n\r\n    modifier onlyOwnerOf(uint _ancestorId) {\r\n        require(msg.sender == ancestorToOwner[_ancestorId]);\r\n        _;\r\n    }\r\n    \r\n  function withdraw(uint _ancestorId) external onlyOwnerOf(_ancestorId) {\r\n    msg.sender.transfer(address(this).balance);\r\n  }\r\n\r\n  function setLevelUpFee(uint _fee) external onlyOwner {\r\n    levelUpFee = _fee;\r\n  }\r\n\r\n  function levelUp(uint _ancestorId) external payable {\r\n    require(msg.value == levelUpFee);\r\n    ancestors[_ancestorId].traumaCount = ancestors[_ancestorId].traumaCount.add(1);\r\n  }\r\n\r\n  function getAncestorsByOwner(address _owner) external view returns(uint[] memory) {\r\n    uint[] memory result = new uint[](ancestorCount[_owner]);\r\n    uint counter = 0;\r\n    for (uint i = 0; i < ancestors.length; i++) {\r\n      if (ancestorToOwner[i] == _owner) {\r\n        result[counter] = i;\r\n        counter++;\r\n      }\r\n    }\r\n    return result;\r\n  }\r\n\r\n  function _triggerCooldown(Ancestor storage _ancestor) internal {\r\n    _ancestor.readyTime = uint32(now + cooldownTime);\r\n  }\r\n\r\n  function _isReady(Ancestor storage _ancestor) internal view returns (bool) {\r\n      return (_ancestor.readyTime <= now);\r\n  }\r\n}",
  "sourcePath": "C:\\Users\\allan\\Desktop\\portfolio\\Ancestor\\contracts\\helper.sol",
  "compiler": {
    "name": "solc",
    "version": "0.5.1+commit.c8a2cb62.Emscripten.clang"
  },
  "schemaVersion": "3.0.15",
  "updatedAt": "2020-12-03T21:36:29.031Z",
  "devdoc": {
    "methods": {
      "isOwner()": {
        "return": "true if `msg.sender` is the owner of the contract.\r"
      },
      "owner()": {
        "return": "the address of the owner.\r"
      },
      "renounceOwnership()": {
        "details": "Allows the current owner to relinquish control of the contract.\r"
      },
      "transferOwnership(address)": {
        "details": "Allows the current owner to transfer control of the contract to a newOwner.\r",
        "params": {
          "newOwner": "The address to transfer ownership to.\r"
        }
      }
    }
  },
  "userdoc": {
    "methods": {
      "renounceOwnership()": {
        "notice": "Renouncing to ownership will leave the contract without an owner.\r It will not be possible to call the functions with the `onlyOwner`\r modifier anymore.\r"
      }
    }
  }
}